:0400000007EF00F016
:0A0008004E820DED1DF092EF1CF08A
:100800000044697374616E636961203D2000252E88
:10081000326600494E46004E414E00696E66006EDB
:10082000616E006C6600636D0000000E0001876F52
:10083000000E866F62C098F063C099F064C09AF0B1
:1008400065C09BF09BBF29EF04F027EF04F03FEF5A
:1008500004F0000E876F010E866F98C011F099C0EA
:1008600012F09AC013F09BC014F0BFEC1DF011C041
:1008700098F012C099F013C09AF014C09BF0000ECB
:1008800000019F6F000E9E6F42C08AF043C08BF044
:1008900086518711D8A44FEF04F051EF04F058EFC0
:1008A00004F046A456EF04F058EF04F072EF04F0A1
:1008B00086518711D8A45FEF04F061EF04F067EF71
:1008C00004F0000E6D6F2B0E6C6F6BEF04F0000EDA
:1008D0006D6F2D0E6C6F6CC000F19E4B9F2B8A07C5
:1008E000D8A08B0798C011F099C012F09AC013F0ED
:1008F0009BC014F088EC18F011041210D8A483EFF8
:1009000004F085EF04F0DCEF04F0BF0E0001676F28
:10091000FF0E686F6651696F6A6B6751692768518E
:100920006A236A510AE11A0E695DD8A09AEF04F0B1
:100930009DEF04F0010E9EEF04F0000E6E6F6F6BE2
:100940006E516F11D8B4A7EF04F0A9EF04F0B7EF20
:1009500004F0000E9E25116E010E9F21126E130EE3
:10096000136E080E146E38EC1CF0C3EF04F0000E8A
:100970009E25116E010E9F21126E1B0E136E080E26
:10098000146E38EC1CF00001FD0E8A27FF0E8B233D
:1009900060C021F061C022F0000E236E010E246EB3
:1009A0008AC025F08BC026F039EC1AF021C060F027
:1009B00022C061F041EF0AF098C011F099C012F026
:1009C0009AC013F09BC014F088EC18F0115012106C
:1009D000D8A4EDEF04F0EFEF04F02FEF05F0BF0E19
:1009E0000001676FFF0E686F6651696F6A6B675130
:1009F000692768516A236A510AE11A0E695DD8A015
:100A000004EF05F007EF05F0010E08EF05F0000E0A
:100A1000706F716B70517111D8B411EF05F013EF55
:100A200005F021EF05F0000E9E25116E010E9F21AD
:100A3000126E170E136E080E146E38EC1CF0C3EF16
:100A400004F0000E9E25116E010E9F21126E1F0EE6
:100A5000136E080E146E38EC1CF0C3EF04F0000E99
:100A60000001A06F000EA16F800EA26F3F0EA36F5A
:100A7000000E9D6F000E9C6F98C011F099C012F08F
:100A80009AC013F09BC014F0000E156E000E166E87
:100A9000000E176E000E186E4FEC1BF0D8B053EF1F
:100AA00005F055EF05F0D8EF05F074EF05F0A0C0A4
:100AB00011F0A1C012F0A2C013F0A3C014F0000EF8
:100AC000156E000E166E200E176E410E186E38EC65
:100AD00011F011C0A0F012C0A1F013C0A2F014C018
:100AE000A3F000019C4B9D2B98C02AF099C02BF0DD
:100AF0009AC02CF09BC02DF0000E156E000E166EE5
:100B0000200E176E410E186EA0C011F0A1C012F099
:100B1000A2C013F0A3C014F038EC11F011C02EF0F5
:100B200012C02FF013C030F014C031F006EC18F0F2
:100B3000D8B09DEF05F09FEF05F057EF05F0BFEF40
:100B400005F0A0C011F0A1C012F0A2C013F0A3C024
:100B500014F0000E156E000E166E200E176E410E6C
:100B6000186E4DEC13F011C0A0F012C0A1F013C02C
:100B7000A2F014C0A3F000019C07D8A09D0798C064
:100B80002AF099C02BF09AC02CF09BC02DF0A0C089
:100B90002EF0A1C02FF0A2C030F0A3C031F006ECBF
:100BA00018F0D8A0D6EF05F0D8EF05F0A1EF05F0CA
:100BB00066C017F0186A08EC1CF0175000018D6F22
:100BC0008DC08CF0670E8D19D8A4E9EF05F0EBEF1E
:100BD00005F011EF06F044504510D8A4F2EF05F0EF
:100BE000F4EF05F0F8EF05F0000E456E010E446ECF
:100BF00045BE05EF06F0455006E14404D8B003EFCA
:100C000006F005EF06F00BEF06F0000E896F060EFA
:100C1000886F1AEF06F044C088F045C089F01AEFDB
:100C200006F045BE16EF06F018EF06F005EF06F0E9
:100C30000BEF06F0670E8D19D8A421EF06F023EF15
:100C400006F052EF06F09DAF31EF06F0FC0E9C5D12
:100C5000FF0E9D59D8A02FEF06F031EF06F050EFB0
:100C600006F0FF0E676FFF0E686F88C069F089C0DD
:100C70006AF06751692768516A239C51695D6A511E
:100C8000800A6B6F9D51800A6B59D8A04AEF06F01D
:100C90004CEF06F050EF06F0660E8C6F52EF06F048
:100CA000650E8C6F88C07EF089C07FF0670E8D194D
:100CB000D8A45DEF06F05FEF06F06FEF06F0660E6A
:100CC0008C19D8A466EF06F068EF06F071EF06F015
:100CD0009DBF6FEF06F06DEF06F071EF06F07E4BF3
:100CE0007F2B660E8C19D8A478EF06F07AEF06F009
:100CF0009AEF06F09DBF81EF06F07FEF06F08DEFD3
:100D000006F0000EA06F000EA16F800EA26F3F0EC6
:100D1000A36F000E9D6F000E9C6F670E8D19D8B4E7
:100D200094EF06F096EF06F09AEF06F09C517E27BE
:100D30009D517F23000E976F000E966F98C08EF026
:100D400099C08FF09AC090F09BC091F0A0C080F045
:100D5000A1C081F0A2C082F0A3C083F02BEF07F006
:100D60008EC011F08FC012F090C013F091C014F03B
:100D7000A0C015F0A1C016F0A2C017F0A3C018F0D3
:100D80004DEC13F011C02AF012C02BF013C02CF060
:100D900014C02DF01AEC15F02AC092F02BC093F07D
:100DA0002CC094F02DC095F092C011F093C012F0B9
:100DB00094C013F095C014F083EC17F011C084F0C8
:100DC00012C085F08EC02AF08FC02BF090C02CF09E
:100DD00091C02DF0A0C015F0A1C016F0A2C017F070
:100DE000A3C018F092C011F093C012F094C013F099
:100DF00095C014F038EC11F011C02EF012C02FF095
:100E000013C030F014C031F05EEC1DF02AC08EF03B
:100E10002BC08FF02CC090F02DC091F0A0C011F02D
:100E2000A1C012F0A2C013F0A3C014F0000E156E02
:100E3000000E166E200E176E410E186E4DEC13F05C
:100E400011C0A0F012C0A1F013C0A2F014C0A3F012
:100E50000001964B972B7E51965D9751800A676FE4
:100E60007F51800A6759D8A038EF07F03AEF07F0B2
:100E7000B0EF06F0A0C011F0A1C012F0A2C013F0B4
:100E8000A3C014F0000E156E000E166EA00E176EA5
:100E9000400E186E38EC11F011C092F012C093F0B1
:100EA00013C094F014C095F08EC02AF08FC02BF0C0
:100EB00090C02CF091C02DF092C02EF093C02FF076
:100EC00094C030F095C031F006EC18F0D8B06BEF5C
:100ED00007F06DEF07F078EF07F0000E0001926F5A
:100EE000000E936F000E946F000E956FA1EF07F048
:100EF0008EC011F08FC012F090C013F091C014F0AA
:100F000092C015F093C016F094C017F095C018F079
:100F10004FEC1BF0D8A08FEF07F091EF07F0A1EF97
:100F200007F0000184B197EF07F099EF07F0A1EF08
:100F300007F0000E926F000E936F000E946F000E7C
:100F4000956F98C011F099C012F09AC013F09BC031
:100F500014F092C015F093C016F094C017F095C02D
:100F600018F042EC0AF011C08EF012C08FF013C0DE
:100F700090F014C091F08EC02AF08FC02BF090C07A
:100F80002CF091C02DF0000E156E000E166E200E86
:100F9000176E410E186E80C011F081C012F082C031
:100FA00013F083C014F038EC11F011C02EF012C011
:100FB0002FF013C030F014C031F006EC18F0D8A0B8
:100FC000E4EF07F0E6EF07F00FEF08F000019C4BAD
:100FD0009D2B80C011F081C012F082C013F083C03D
:100FE00014F0000E156E000E166E200E176E410ED8
:100FF000186E38EC11F011C080F012C081F013C0EF
:1010000082F014C083F0660E00018C19D8A40BEF97
:1010100008F00DEF08F00FEF08F07E4B7F2B80C03B
:10102000A0F081C0A1F082C0A2F083C0A3F0650E41
:1010300000018C19D8B41FEF08F021EF08F027EF5A
:1010400008F09CC07CF09DC07DF02BEF08F0000EF6
:101050007D6F000E7C6F000E7B6F000E7A6F000EAE
:10106000796F000E786F000E976F000E966F27EF66
:1010700009F08EC011F08FC012F090C013F091C033
:1010800014F0A0C015F0A1C016F0A2C017F0A3C0C4
:1010900018F04DEC13F011C02AF012C02BF013C061
:1010A0002CF014C02DF01AEC15F02AC092F02BC0D1
:1010B00093F02CC094F02DC095F092C011F093C025
:1010C00012F094C013F095C014F083EC17F011C027
:1010D00084F012C085F046B870EF08F072EF08F0A7
:1010E00090EF08F0000184518511D8A47AEF08F040
:1010F0007CEF08F090EF08F0670E8D19D8A483EF0D
:1011000008F085EF08F090EF08F07DBF8CEF08F055
:101110008AEF08F090EF08F0784B792BDBEF08F0BE
:1011200000017A517B11D8A498EF08F09AEF08F0EB
:10113000C4EF08F07DBFA1EF08F09FEF08F0C4EF07
:1011400008F0000E9E25D96E010E9F21DA6E2E0E3C
:10115000DF6E9E4B9F2B8A07D8A08B07000E7B6FFC
:10116000010E7A6FC4EF08F0000E9E25D96E010EB5
:101170009F21DA6E300EDF6E9E4B9F2B8A07D8A020
:101180008B077807D8A0790778517911D8A4CBEFCD
:1011900008F0CDEF08F0B4EF08F0000E9E25D96EF0
:1011A000010E9F21DA6E8451300FDF6E9E4B9F2B14
:1011B0008A07D8A08B078EC02AF08FC02BF090C072
:1011C0002CF091C02DF0A0C015F0A1C016F0A2C067
:1011D00017F0A3C018F092C011F093C012F094C0A1
:1011E00013F095C014F038EC11F011C02EF012C0BD
:1011F0002FF013C030F014C031F05EEC1DF02AC0A7
:101200008EF02BC08FF02CC090F02DC091F0A0C0BC
:1012100011F0A1C012F0A2C013F0A3C014F0000E90
:10122000156E000E166E200E176E410E186E4DECE8
:1012300013F011C0A0F012C0A1F013C0A2F014C0AE
:10124000A3F000017C07D8A07D07964B972B7E5119
:10125000965D9751800A676F7F51800A6759D8B0B1
:1012600034EF09F036EF09F044EF09F09FBF42EF89
:1012700009F09F5109E14B0E9E5DD8A042EF09F0A5
:1012800044EF09F039EF08F07A517B11D8A44BEF05
:1012900009F04DEF09F05EEF09F046A852EF09F0B2
:1012A00054EF09F05EEF09F0000E9E25D96E010E95
:1012B0009F21DA6E2E0EDF6E9E4B9F2B000E9E2519
:1012C000D96E010E9F21DA6E000EDF6E650E8C194D
:1012D000D8A46DEF09F06FEF09F0C8EF04F0000E2D
:1012E000976F4F0E966F000E9625D96E010E9721BF
:1012F000DA6E000EDF6E000E876F000E866F9DBFE8
:1013000086EF09F084EF09F08EEF09F0000E876F89
:10131000010E866F9C6D9D1FD8B09D2B000E896FAE
:10132000020E886FBFEF09F09607D8A09707000E4E
:101330009625D96E010E9721DA6E9CC011F09DC0E2
:1013400012F0000E146E0A0E136EF7EC1AF0115024
:10135000300FDF6E9CC011F09DC012F0000E146EB5
:101360000A0E136ED7EC19F011C09CF012C09DF05C
:1013700000018807D8A089078A07D8A08B079C514D
:101380009D11D8A4C6EF09F0C8EF09F094EF09F059
:1013900089BFD5EF09F0895106E18805D8B0D3EFB0
:1013A00009F0D5EF09F094EF09F09607D8A0970758
:1013B00086518711D8A4DFEF09F0E1EF09F0E7EFDC
:1013C00009F0000E736F2B0E726FEBEF09F0000E39
:1013D000736F2D0E726F000E9625D96E010E972138
:1013E000DA6E72C0DFFF8A07D8A08B079607D8A0F5
:1013F0009707BF0E676FFF0E686F6651696F6A6B64
:101400006751692768516A236A510AE11A0E695DBA
:10141000D8A00DEF0AF010EF0AF0010E11EF0AF05C
:10142000000E766F776B76517711D8A41AEF0AF019
:101430001CEF0AF022EF0AF0000E756F650E746F54
:1014400026EF0AF0000E756F450E746F000E96259C
:10145000D96E010E9721DA6E74C0DFFF8A07D8A01B
:101460008B07000E9E25116E010E9F21126E000E3D
:101470009625136E010E9721146E38EC1CF0C8EF00
:1014800004F012001450800B1D6E145014241F6EB3
:1014900013AE4DEF0AF04FEF0AF050EF0AF01F8045
:1014A0001F50D8B456EF0AF058EF0AF06DEF0AF06B
:1014B0001F28D8A45EEF0AF060EF0AF068EF0AF088
:1014C000000E116E000E126E000E136E000E146EE2
:1014D000138E000E146E75EF0AF0000E116E000EE2
:1014E000126E000E136E000E146E1850800B1E6EDE
:1014F0001D501E18D8B47FEF0AF081EF0AF082EF7A
:101500000AF01D8C185018241E6E17AE8AEF0AF0D0
:101510008CEF0AF08DEF0AF01E801E50D8B493EFC6
:101520000AF095EF0AF0AAEF0AF01E28D8A49BEF64
:101530000AF09DEF0AF0A5EF0AF0000E156E000EFE
:10154000166E000E176E000E186E178E000E186EB7
:10155000B2EF0AF0000E156E000E166E000E176E3A
:10156000000E186E1F501E5CD8B0B9EF0AF0BBEF2A
:101570000AF0E2EF0AF01DACC0EF0AF0C2EF0AF089
:10158000C4EF0AF0800E1D1A1FC020F01EC01FF00D
:1015900020C01EF011C020F015C011F020C015F0C1
:1015A00012C020F016C012F020C016F013C020F0B8
:1015B00017C013F020C017F014C020F018C014F0AA
:1015C00020C018F0000E206E1F501EC019F01A6ABD
:1015D000195E000E1A5A1ABEF7EF0AF01A5009E106
:1015E0001A0E195CD8A0F7EF0AF0F9EF0AF030EF05
:1015F0000BF01150121013101410D8A402EF0BF0BE
:1016000005EF0BF0010E06EF0BF0000E206E000E42
:10161000116E000E126E000E136E000E146E1EC0C0
:101620001FF039EF0BF020A018EF0BF01AEF0BF0C2
:1016300020EF0BF0D89020300109206E22EF0BF044
:10164000D890203211A027EF0BF029EF0BF02AEFF2
:101650000BF0208E143414321332123211321F2A3E
:101660001E501F5CD8A037EF0BF039EF0BF013EFD3
:101670000BF01DBC3EEF0BF040EF0BF080EF0BF0DA
:101680001F50D8A446EF0BF048EF0BF052EF0BF0D1
:10169000000E116E000E126E000E136E000E146E10
:1016A000A1EF0CF0155011261650122217501322DC
:1016B0001850142214A05FEF0BF061EF0BF00DEF48
:1016C0000CF020A066EF0BF068EF0BF06EEF0BF064
:1016D000D89020300109206E70EF0BF0D8902032A6
:1016E00011A075EF0BF077EF0BF078EF0BF0208E79
:1016F000143414321332123211321F2A0DEF0CF04F
:101700001550115C16501258175013581450800A77
:10171000196E1850800A1958D8B091EF0BF093EF5A
:101720000BF0BEEF0BF01150155C196E12501658ED
:101730001A6E135017581B6E145018581C6EFF0E5B
:101740001924116EFF0E1A20126EFF0E1B20136E4D
:10175000FF0E1C20146E800E1D1A206C2050D8A481
:10176000B4EF0BF0B6EF0BF0C6EF0BF0010E112645
:10177000000E122213221422C6EF0BF01550115E38
:101780001650125A1750135A1850145A115012105A
:1017900013101410D8A4CFEF0BF0D1EF0BF006EF1D
:1017A0000CF02050D8A4D7EF0BF0D9EF0BF006EFD8
:1017B0000CF0000E116E000E126E000E136E000E75
:1017C000146EA1EF0CF0D890113612361336143681
:1017D00020AEEDEF0BF0EFEF0BF0F0EF0BF0118020
:1017E00020A0F5EF0BF0F7EF0BF0FBEF0BF0D8803C
:1017F0002036FDEF0BF0D89020361F50D8B403EF01
:101800000CF005EF0CF006EF0CF01F0613AE0BEF1B
:101810000CF00DEF0CF0E3EF0BF0000E1E6E20AE9F
:1018200014EF0CF016EF0CF02EEF0CF020C019F0B6
:101830007F0E1916D8B41FEF0CF021EF0CF025EF36
:101840000CF0010E1E6E2EEF0CF011A02AEF0CF022
:101850002CEF0CF02EEF0CF021EF0CF01E50D8B452
:1018600034EF0CF036EF0CF061EF0CF0010E1126A6
:10187000000E12221322142214A041EF0CF043EFA9
:101880000CF061EF0CF011C019F012C01AF013C087
:101890001BF014C01CF01C341C321B321A321932DB
:1018A00019C011F01AC012F01BC013F01CC014F0C4
:1018B0001F28D8B45EEF0CF060EF0CF061EF0CF075
:1018C0001F2A1F28D8B467EF0CF069EF0CF071EFF6
:1018D0000CF01F50D8A46FEF0CF071EF0CF083EFF9
:1018E0000CF0000E116E000E126E000E136E000E44
:1018F000146E1F50D8A47FEF0CF081EF0CF083EF33
:101900000CF0000E1D6E1FA088EF0CF08AEF0CF09B
:101910008DEF0CF0138E8EEF0CF0139ED8901F30CD
:10192000146E1DAE96EF0CF098EF0CF099EF0CF0E2
:10193000148E11C011F012C012F013C013F014C0B5
:1019400014F012000450800B0D6E045004240F6E2E
:1019500003AEADEF0CF0AFEF0CF0B0EF0CF00F807A
:101960000F50D8B4B6EF0CF0B8EF0CF0CDEF0CF090
:101970000F28D8A4BEEF0CF0C0EF0CF0C8EF0CF0AD
:10198000000E016E000E026E000E036E000E046E5D
:10199000038E000E046ED5EF0CF0000E016E000EEB
:1019A000026E000E036E000E046E0850800B0E6E69
:1019B0000D500E18D8B4DFEF0CF0E1EF0CF0E2EFB1
:1019C0000CF00D8C085008240E6E07AEEAEF0CF0F8
:1019D000ECEF0CF0EDEF0CF00E800E50D8B4F3EFFE
:1019E0000CF0F5EF0CF00AEF0DF00E28D8A4FBEF89
:1019F0000CF0FDEF0CF005EF0DF0000E056E000E83
:101A0000066E000E076E000E086E078E000E086E42
:101A100012EF0DF0000E056E000E066E000E076E42
:101A2000000E086E0F500E5CD8B019EF0DF01BEFD2
:101A30000DF042EF0DF00DAC20EF0DF022EF0DF0A8
:101A400024EF0DF0800E0D1A0FC010F00EC00FF035
:101A500010C00EF001C010F005C001F010C005F07C
:101A600002C010F006C002F010C006F003C010F073
:101A700007C003F010C007F004C010F008C004F065
:101A800010C008F0000E106E0F500EC009F00A6A68
:101A9000095E000E0A5A0ABE57EF0DF00A5009E11E
:101AA0001A0E095CD8A057EF0DF059EF0DF090EF2A
:101AB0000DF00150021003100410D8A462EF0DF0D5
:101AC00065EF0DF0010E66EF0DF0000E106E000ECA
:101AD000016E000E026E000E036E000E046E0EC04C
:101AE0000FF099EF0DF010A078EF0DF07AEF0DF0F8
:101AF00080EF0DF0D89010300109106E82EF0DF0DC
:101B0000D890103201A087EF0DF089EF0DF08AEF29
:101B10000DF0108E043404320332023201320F2AE7
:101B20000E500F5CD8A097EF0DF099EF0DF073EF0A
:101B30000DF00DBC9EEF0DF0A0EF0DF0E0EF0DF0FD
:101B40000F50D8A4A6EF0DF0A8EF0DF0B2EF0DF0F6
:101B5000000E016E000E026E000E036E000E046E8B
:101B600001EF0FF005500126065002220750032214
:101B70000850042204A0BFEF0DF0C1EF0DF06DEF8F
:101B80000EF010A0C6EF0DF0C8EF0DF0CEEF0DF087
:101B9000D89010300109106ED0EF0DF0D8901032AF
:101BA00001A0D5EF0DF0D7EF0DF0D8EF0DF0108EAE
:101BB000043404320332023201320F2A6DEF0EF088
:101BC0000550015C06500258075003580450800A23
:101BD000096E0850800A0958D8B0F1EF0DF0F3EF04
:101BE0000DF01EEF0EF00150055C096E0250065814
:101BF0000A6E035007580B6E045008580C6EFF0E07
:101C00000924016EFF0E0A20026EFF0E0B20036EE8
:101C1000FF0E0C20046E800E0D1A106C1050D8A40C
:101C200014EF0EF016EF0EF026EF0EF0010E012667
:101C3000000E02220322042226EF0EF00550015E60
:101C40000650025A0750035A0850045A0150021015
:101C500003100410D8A42FEF0EF031EF0EF066EF52
:101C60000EF01050D8A437EF0EF039EF0EF066EFFB
:101C70000EF0000E016E000E026E000E036E000EDE
:101C8000046E01EF0FF0D8900136023603360436A9
:101C900010AE4DEF0EF04FEF0EF050EF0EF0018052
:101CA00010A055EF0EF057EF0EF05BEF0EF0D8805E
:101CB00010365DEF0EF0D89010360F50D8B463EFA9
:101CC0000EF065EF0EF066EF0EF00F0603AE6BEF51
:101CD0000EF06DEF0EF043EF0EF0000E0E6E10AE34
:101CE00074EF0EF076EF0EF08EEF0EF010C009F0EC
:101CF0007F0E0916D8B47FEF0EF081EF0EF085EF5E
:101D00000EF0010E0E6E8EEF0EF001A08AEF0EF0B7
:101D10008CEF0EF08EEF0EF081EF0EF00E50D8B477
:101D200094EF0EF096EF0EF0C1EF0EF0010E0126CB
:101D3000000E02220322042204A0A1EF0EF0A3EF62
:101D40000EF0C1EF0EF001C009F002C00AF003C0AE
:101D50000BF004C00CF00C340C320B320A32093296
:101D600009C001F00AC002F00BC003F00CC004F07F
:101D70000F28D8B4BEEF0EF0C0EF0EF0C1EF0EF09A
:101D80000F2A0F28D8B4C7EF0EF0C9EF0EF0D1EF2D
:101D90000EF00F50D8A4CFEF0EF0D1EF0EF0E3EF1E
:101DA0000EF0000E016E000E026E000E036E000EAD
:101DB000046E0F50D8A4DFEF0EF0E1EF0EF0E3EF6A
:101DC0000EF0000E0D6E0FA0E8EF0EF0EAEF0EF031
:101DD000EDEF0EF0038EEEEF0EF0039ED8900F3075
:101DE000046E0DAEF6EF0EF0F8EF0EF0F9EF0EF018
:101DF000048E01C001F002C002F003C003F004C071
:101E000004F01200A6C0D9FFA7C0DAFFDECFF6FFAC
:101E1000DDCFF7FF0800F550250AD8A412EF0FF028
:101E200014EF0FF01CEF11F0A6C0D9FFA7C0DAFF26
:101E3000DE2A000EDD22000E436E000E426E42C00E
:101E400046F043C047F044684568A6C0D9FFA7C024
:101E5000DAFFDECFF6FFDDCFF7FF0800F5502E0AE0
:101E6000D8A435EF0FF037EF0FF0B5EF0FF0000EFD
:101E7000456E000E446EA6C0D9FFA7C0DAFFDE2A69
:101E8000000EDD22A6C0D9FFA7C0DAFFDECFF6FF25
:101E9000DDCFF7FF0800F5502A0AD8A452EF0FF063
:101EA00054EF0FF071EF0FF0A6C0D9FFA7C0DAFF13
:101EB000DE2A000EDD22A8C0D9FFA9C0DAFFDFCFDD
:101EC000AAF0020EDE26DFCFABF0000EDD22AAC0A4
:101ED000D9FFABC0DAFFDECF44F0DDCF45F0B5EF80
:101EE0000FF0A6C0D9FFA7C0DAFFDECF18F0DDCF14
:101EF00019F023EC16F018C044F019C045F088EF33
:101F00000FF0A6C0D9FFA7C0DAFFDE2A000EDD223F
:101F1000D00E0001AA6FFF0EAB6FA6C0D9FFA7C0FD
:101F2000DAFFDECFF6FFDDCFF7FF0800F550AC6F2C
:101F3000AD6BAA51AC27AB51AD23AD510AE10A0EEE
:101F4000AC5DD8A0A6EF0FF0A9EF0FF0010EAAEF3D
:101F50000FF0000EAE6FAF6BAE51AF11D8A4B3EF60
:101F60000FF0B5EF0FF081EF0FF0A6C0D9FFA7C0BB
:101F7000DAFFDECFF6FFDDCFF7FF0800F550176E72
:101F8000186A08EC1CF017500001B26FB251D8B4B7
:101F9000CCEF0FF0CEEF0FF008EF10F0A6C0D9FF96
:101FA000A7C0DAFFDECFAAF0DDCFABF0010EAA2783
:101FB000000EAB23AAC0F6FFABC0F7FF0800F55038
:101FC000176E186A08EC1CF017500001B36FB3517C
:101FD000D8B4EDEF0FF0EFEF0FF008EF10F0A6C060
:101FE000D9FFA7C0DAFFDECFAAF0DDCFABF0020E3B
:101FF000AA27000EAB23AAC0F6FFABC0F7FF08006C
:10200000F550176E186A08EC1CF017500001B46FF9
:10201000660EB219D8A40FEF10F011EF10F051EFC7
:1020200010F0A6C0D9FFA7C0DAFFDECFF6FFDDCFE4
:10203000F7FF0800F5CFB9F0A6C0D9FFA7C0DAFFB7
:10204000DE2A000EDD22A8C0D9FFA9C0DAFFDFCF4B
:10205000AAF0040EDE26DFCFABF0000EDD22AAC010
:10206000D9FFABC0DAFFDECFB5F0DECFB6F0DECF02
:10207000B7F0DECFB8F0A4C060F0A5C061F0B5C085
:1020800062F0B6C063F0B7C064F0B8C065F0B9C024
:1020900066F015EC04F060C0A4F061C0A5F037EF65
:1020A00011F0B20E116E000E126E230E136E080E9A
:1020B000146E000E166E020E156E07EC19F011501C
:1020C0001210D8A466EF10F068EF10F0E4EF10F0F3
:1020D000A6C0D9FFA7C0DAFFDECFAAF0DDCFABF0F4
:1020E000010E0001AA27000EAB23AAC0F6FFABC069
:1020F000F7FF0800F5CFB9F0BF0EAA6FFF0EAB6F68
:10210000A6C0D9FFA7C0DAFFDECFF6FFDDCFF7FF0D
:102110000800F550AC6FAD6BAA51AC27AB51AD23A5
:10212000AD510AE11A0EAC5DD8A099EF10F09CEF0A
:1021300010F0010E9DEF10F0000EB06FB16BB051BA
:10214000B111D8B4A6EF10F0A8EF10F0C2EF10F064
:10215000A8C0D9FFA9C0DAFFDFCFAAF0040EDE269F
:10216000DFCFABF0000EDD22AAC0D9FFABC0DAFF93
:10217000DECFB5F0DECFB6F0DECFB7F0DECFB8F011
:10218000DAEF10F0A8C0D9FFA9C0DAFFDFCFAAF0BC
:10219000040EDE26DFCFABF0000EDD22AAC0D9FF91
:1021A000ABC0DAFFDECFB5F0DECFB6F0DECFB7F0F2
:1021B000DECFB8F0020EA6C0D9FFA7C0DAFFDE2638
:1021C000000EDD223BEF10F0A6C0D9FFA7C0DAFF5A
:1021D000DECFF6FFDDCFF7FF0800F550250AD8A4C3
:1021E000F4EF10F0F6EF10F00EEF11F0A6C0D9FFEB
:1021F000A7C0DAFFDE2A000EDD22000E126E250EC9
:10220000116EA4C013F0A5C014F072EC19F0000E0A
:102210000001A56F010EA46F37EF11F0A6C0D9FF22
:10222000A7C0DAFFDE2A000EDD22000E0001A56F36
:10223000000EA46F37EF11F0A6C0D9FFA7C0DAFFD8
:10224000DECFF6FFDDCFF7FF0800F550116E126A02
:10225000A4C013F0A5C014F072EC19F0A6C0D9FF09
:10226000A7C0DAFFDE2A000EDD2207EF11F0120010
:102270001450800B1D6E14501424236E13AE43EFC4
:1022800011F045EF11F046EF11F023802350D8B440
:102290004CEF11F04EEF11F061EF11F02328D8A4AC
:1022A00054EF11F056EF11F05EEF11F0000E116EC9
:1022B000000E126E000E136E000E146E138E69EF78
:1022C00011F0000E116E000E126E000E136E000E55
:1022D000146E1850800B1D1A18501824226E17AE59
:1022E00074EF11F076EF11F077EF11F022802250A9
:1022F000D8B47DEF11F07FEF11F092EF11F02228AA
:10230000D8A485EF11F087EF11F08FEF11F0000ED8
:10231000156E000E166E000E176E000E186E178EDC
:102320009AEF11F0000E156E000E166E000E176E6D
:10233000000E186E2250D8B4A0EF11F0A2EF11F0E9
:10234000AAEF11F02350D8A4A8EF11F0AAEF11F0D2
:10235000B4EF11F0000E116E000E126E000E136E2F
:10236000000E146E4CEF13F017501102F3CF28F04B
:10237000F4CF29F028501E6E1F6A206A216A295066
:10238000246E256A266A276A16501202F3CF28F0B7
:10239000F4CF29F028501E26000E1F2220222122D1
:1023A00029502426000E252226222722155013020A
:1023B000F3CF28F0F4CF29F028501E26000E1F225C
:1023C0002022212229502426000E252226222722DF
:1023D00020C021F01FC020F01EC01FF01E6A155043
:1023E0001202F3CF28F0F4CF29F028501E262950EE
:1023F0001F22000E2022000E212216501102F3CFC0
:1024000028F0F4CF29F028501E2629501F22000E54
:102410002022000E212220C021F01FC020F01EC06B
:102420001FF01E6A15501102F3CF28F0F4CF29F0E7
:1024300028501E2629501F22000E2022000E212285
:1024400017501202F3CF28F0F4CF29F02850242699
:1024500029502522000E2622000E27221650130294
:10246000F3CF28F0F4CF29F0285024262950252234
:10247000000E2622000E272217501302F3CF28F059
:10248000F4CF29F02850196E29501A6E1B6A1C6A65
:102490001BC01CF01AC01BF019C01AF0196A1950A1
:1024A00024261A5025221B5026221C5027221EC0EB
:1024B00019F01FC01AF020C01BF021C01CF0190E2B
:1024C00067EF12F0D8901C321B321A321932E82E04
:1024D00062EF12F0195024261A5025221B50262292
:1024E0001C50272220C021F01FC020F01EC01FF06A
:1024F0001E6A225023C019F01A6A1926000E1A22E9
:10250000820E1924286EFF0E1A20296E9DEF12F0FC
:10251000D890243625362636273621AE92EF12F093
:1025200094EF12F095EF12F02480D8901E361F36EB
:10253000203621362806D8A0290626AEA2EF12F0B2
:10254000A4EF12F088EF12F0000E226E21AEABEF76
:1025500012F0ADEF12F0D1EF12F0FF0E1E14196E53
:10256000FF0E1F141A6EFF0E20141B6E7F0E211417
:102570001C6E19501A101B101C10D8B4C2EF12F0A8
:10258000C4EF12F0C8EF12F0010E226ED1EF12F07C
:1025900024A0CDEF12F0CFEF12F0D1EF12F0C4EF84
:1025A00012F02250D8B4D7EF12F0D9EF12F0FDEFAD
:1025B00012F0010E2426000E25222622272227A013
:1025C000E4EF12F0E6EF12F0FDEF12F024C019F084
:1025D00025C01AF026C01BF027C01CF01C341C328A
:1025E0001B321A32193219C024F01AC025F01BC050
:1025F00026F01CC027F0284A292A29BE08EF13F02C
:10260000295008E12828D8A008EF13F00AEF13F0AA
:1026100014EF13F0000E246E000E256E800E266E51
:102620007F0E276E42EF13F029BE21EF13F02950E1
:1026300006E12804D8B01FEF13F021EF13F02DEFBF
:1026400013F0000E246E000E256E000E266E000E96
:10265000276E000E1D6E42EF13F028C023F0FF0E10
:102660002416FF0E25167F0E2616000E271623A011
:102670003CEF13F03EEF13F03FEF13F0268ED890AF
:102680002330276E1D50271224C011F025C012F0F0
:1026900026C013F027C014F012001450800B216ED6
:1026A00014501424286E13AE58EF13F05AEF13F0A1
:1026B0005BEF13F028802850D8B461EF13F063EF7C
:1026C00013F078EF13F02828D8A469EF13F06BEF1C
:1026D00013F073EF13F0000E116E000E126E000E69
:1026E000136E000E146E138E000E146E80EF13F036
:1026F000000E116E000E126E000E136E000E146EA0
:102700001850800B211A18501824296E17AE8BEF21
:1027100013F08DEF13F08EEF13F029802950D8B409
:1027200094EF13F096EF13F0ABEF13F02928D8A431
:102730009CEF13F09EEF13F0A6EF13F0000E156E52
:10274000000E166E000E176E000E186E178E000E1D
:10275000186EB3EF13F0000E156E000E166E000E1D
:10276000176E000E186E1550161017101810D8A4FA
:10277000BCEF13F0BEEF13F0D6EF13F0000E116EA6
:10278000000E126E000E136E000E146E800E1312E9
:102790007F0E14122150141211C011F012C012F049
:1027A00013C013F014C014F019EF15F02850D8A47A
:1027B000DCEF13F0DEEF13F0E8EF13F0000E116E14
:1027C000000E126E000E136E000E146E19EF15F04F
:1027D000295028C019F01A6A195E000E1A5A7F0E85
:1027E0001924226E000E1A20236E11C01DF012C093
:1027F0001EF013C01FF014C020F0000E116E000E6A
:10280000126E000E136E000E146E000E246E000E7B
:10281000256E000E266E000E276E000E296E49EF03
:1028200014F02950D8B417EF14F019EF14F030EF6A
:1028300014F0D8901D361E361F362036D89011362B
:1028400012361336143627AE28EF14F02AEF14F0A0
:102850002BEF14F01180D8902436253626362736F3
:1028600015501D5C16501E5817501F5818502058F0
:10287000D8A03DEF14F03FEF14F048EF14F0278C90
:1028800015501D5E16501E5A17501F5A1850205AC8
:10289000292A190E29644FEF14F051EF14F011EFAB
:1028A00014F01D501E101F102010D8B45AEF14F051
:1028B0005CEF14F074EF14F0248074EF14F0D890EF
:1028C000113612361336143627AE69EF14F06BEF5B
:1028D00014F06CEF14F01180D8902436253626368B
:1028E00027362206D8A0230613AE79EF14F07BEF2B
:1028F00014F05FEF14F0000E296E27AE82EF14F093
:1029000084EF14F0A8EF14F0FF0E2414196EFF0EDC
:1029100025141A6EFF0E26141B6E7F0E27141C6ED4
:1029200019501A101B101C10D8B499EF14F09BEF1B
:1029300014F09FEF14F0010E296EA8EF14F011A00F
:10294000A4EF14F0A6EF14F0A8EF14F09BEF14F02E
:102950002950D8B4AEEF14F0B0EF14F0D4EF14F067
:10296000010E1126000E12221322142214A0BBEF16
:1029700014F0BDEF14F0D4EF14F011C019F012C030
:102980001AF013C01BF014C01CF01C341C321B3294
:102990001A32193219C011F01AC012F01BC013F00C
:1029A0001CC014F0224A232A23BEDFEF14F0235068
:1029B00008E12228D8A0DFEF14F0E1EF14F0ECEFEB
:1029C00014F0000E236E2268000E116E000E126EBF
:1029D000000E136E000E146E23BEF9EF14F0235098
:1029E00006E12204D8B0F7EF14F0F9EF14F007EF86
:1029F00015F0000E236E000E226E000E116E000EFA
:102A0000126E000E136E000E146E000E216E22C0A8
:102A100028F028A00EEF15F010EF15F013EF15F0C9
:102A2000138E14EF15F0139ED8902830146ECAEF51
:102A300013F01200D9C03AF0DAC03BF0DBC03CF032
:102A4000DCC03DF02AC03AF02BC03BF02CC03CF07B
:102A50002DC03DF0810E2E6EFF0E2F6E3AC030F06D
:102A60003BC031F03CC032F03DC033F0180E3EEFB9
:102A700015F0D8903332323231323032E82E39EF1D
:102A800015F030502E24386E000E2F20396E39BECE
:102A900053EF15F0395009E1170E385CD8A053EF09
:102AA00015F055EF15F05FEF15F02AC02AF02BC096
:102AB0002BF02CC02CF02DC02DF022EF16F039BEDB
:102AC00064EF15F066EF15F0D6EF15F038C02EF074
:102AD000FF0E2F6EFF0E306E7F0E316E000E326EC7
:102AE0002E6675EF15F07DEF15F03234323231324B
:102AF00030322F322E2E70EF15F02FC034F030C050
:102B000035F031C036F032C037F034503A142E6E02
:102B100035503B142F6E36503C14306E37503D14F8
:102B2000316E2E502F1030103110D8A49AEF15F0BE
:102B30009CEF15F09EEF15F055EF15F03AC02EF012
:102B40003BC02FF03CC030F03DC031F0200EAEEF66
:102B500015F0D890313230322F322E32E82EA9EFD4
:102B600015F02E502F1030103110D8B4BAEF15F0E8
:102B7000BCEF15F0C4EF15F034503A2635503B2227
:102B800036503C2237503D22341C2E6E351C2F6EA1
:102B9000361C306E371C316E2E503A162F503B16B5
:102BA00030503C1631503D161AEF16F03AC02EF058
:102BB0003BC02FF03CC030F03DC031F0200EE6EFBE
:102BC00015F0D890313230322F322E32E82EE1EF2C
:102BD00015F02E502F1030103110D8A4F2EF15F050
:102BE000F4EF15F0FEEF15F0000E3A6E000E3B6E9E
:102BF000000E3C6E000E3D6E1AEF16F0D8903A347F
:102C00002E6E3B342F6E3C34306E3D34316E2E5080
:102C10002F1030103110D8B410EF16F012EF16F05C
:102C20001AEF16F0000E3A6E000E3B6E800E3C6EF0
:102C3000BF0E3D6E3AC02AF03BC02BF03CC02CF0DA
:102C40003DC02DF01200000E266E000E256E000E07
:102C50001F6E000E1E6E2FEF16F0184A192A010E75
:102C6000246E18C0F6FF19C0F7FF0800F550200ABF
:102C7000D8B43DEF16F03FEF16F05CEF16F0F70E0C
:102C80001A6EFF0E1B6E18C0F6FF19C0F7FF080082
:102C9000F5501C6E1D6A1A501C261B501D221D501B
:102CA00009E1050E1C5CD8A058EF16F05AEF16F09B
:102CB0005CEF16F0000E246E24C020F0216A205034
:102CC0002110D8A466EF16F068EF16F02DEF16F07D
:102CD00072EF16F0000E1F6E010E1E6E184A192AB2
:102CE000A7EF16F018C0F6FF19C0F7FF0800F5505F
:102CF0001A6E1B6A1B50000AD8B481EF16F0A7EFBA
:102D000016F01A502B0AD8B46EEF16F0060AD8B493
:102D10006AEF16F0A7EF16F025C011F026C012F0EA
:102D2000000E146E0A0E136E2AEC1EF018C0F6FF89
:102D300019C0F7FF0800F550115E000E125A300E50
:102D40001124256E000E1220266E6EEF16F0D00EA6
:102D50001A6EFF0E1B6E18C0F6FF19C0F7FF0800B1
:102D6000F5501C6E1D6A1A501C261B501D221D504A
:102D70000AE10A0E1C5CD8A0C0EF16F0C3EF16F0F3
:102D8000010EC4EF16F0000E226E236A22502310AB
:102D9000D8A4CDEF16F0CFEF16F08CEF16F01E5042
:102DA0001F10D8A4D6EF16F0D8EF16F0E6EF16F005
:102DB00025C01AF026C01BF01A1E1B1E1A4A1B2A19
:102DC0001AC018F01BC019F0EAEF16F025C018F071
:102DD00026C019F012000F0EC16E100E926E3DEC5F
:102DE0001EF09AEC1AF0000E4A6E000E4B6E000EAA
:102DF0004C6E400E4D6E808A100EE82EFED700D02D
:102E0000809A80A806EF17F008EF17F001EF17F08F
:102E1000000ED76E6D0ED66ED58E80B812EF17F0FD
:102E200014EF17F00DEF17F0D59EDF0E0001C26F03
:102E3000000EC36F0E0EC46F080EC56F4AC0C6F0F9
:102E40004BC0C7F04CC0C8F04DC0C9F0BBEC1CF083
:102E5000000E136E000E126E000E156E000E146E34
:102E600012EC1EF0010E126E080E136EA4EC1BF095
:102E7000030E0001D86F8A0ED76F550EE82EFED7CD
:102E8000D72FFCD7D82FFAD700D0000E136E010E23
:102E9000126E000E156E010E146E12EC1EF0DF0E97
:102EA000126E000E136EA4EC1BF0030E0001D86F1F
:102EB0008A0ED76F550EE82EFED7D72FFCD7D82F06
:102EC000FAD700D0000E136E010E126E000E156EB2
:102ED000090E146E12EC1EF0260E126E080E136E02
:102EE000A4EC1BF0030E0001D86F8A0ED76F550EAD
:102EF000E82EFED7D72FFCD7D82FFAD700D0F3EF84
:102F000016F007EF00F0133414341A6E1A50D8A4D8
:102F10008CEF17F08EEF17F098EF17F0000E116E90
:102F2000000E126E000E136E000E146E05EF18F0F8
:102F300011C015F012C016F013C017F014C018F02D
:102F4000200EA8EF17F0D89018321732163215322B
:102F5000E82EA3EF17F01550196E138EFF0E111601
:102F6000FF0E1216FF0E1316000E1416960E1A5EA2
:102F70001ABEBFEF17F0BDEF17F0D5EF17F01A50DC
:102F8000800A970FD8B0C7EF17F0C9EF17F0CBEF53
:102F900017F08EEF17F0D89014321332123211322C
:102FA0001A3ECBEF17F0EDEF17F01F0E1A64DBEFB0
:102FB00017F0DDEF17F0E5EF17F08EEF17F0D89070
:102FC00011361236133614361A061A50D8A4EBEFFF
:102FD00017F0EDEF17F0DFEF17F01950D8B4F3EF5B
:102FE00017F0F5EF17F0FDEF17F0141E131E121E69
:102FF000116C000E12221322142211C011F012C003
:1030000012F013C013F014C014F01200000E2A14B2
:10301000326E000E2B14336E800E2C14346E7F0E25
:103020002D14356E3250331034103510D8A41BEFE8
:1030300018F01DEF18F025EF18F0000E2A6E000EA4
:103040002B6E000E2C6E000E2D6E000E2E14326EA6
:10305000000E2F14336E800E3014346E7F0E311438
:10306000356E3250331034103510D8A43AEF18F0C2
:103070003CEF18F044EF18F0000E2E6E000E2F6E8D
:10308000000E306E000E316E2DAE49EF18F04BEF92
:1030900018F054EF18F02A6C2B1ED8B02B2A2C1ED7
:1030A000D8B02C2A800E2D5631AE59EF18F05BEFB8
:1030B00018F064EF18F02E6C2F1ED8B02F2A301E97
:1030C000D8B0302A800E3156000E2A1A000E2B1A64
:1030D000000E2C1A800E2D1A000E2E1A000E2F1A1A
:1030E000000E301A800E311A2E502A5C2F502B58A9
:1030F00030502C5831502D58D8B081EF18F083EF54
:1031000018F086EF18F0D89087EF18F0D8801200EA
:103110003EC01BF03FC01CF040C01DF041C01EF07F
:1031200011C01BF012C01CF013C01DF014C01EF023
:103130001BC015F01CC016F01DC017F01EC018F003
:10314000180EA8EF18F0D890183217321632153230
:10315000E82EA3EF18F01550196E1A6A19501A10BC
:10316000D8A4B5EF18F0B7EF18F0D7EF18F0D89053
:103170001B34156E1C34166E1D34176E1E34186EFB
:103180001550161017101810D8A4C9EF18F0CBEF6F
:1031900018F0D1EF18F0000E126E020E116E06EF4D
:1031A00019F0000E126E030E116E06EF19F01928B9
:1031B0001A10D8A4DEEF18F0E0EF18F002EF19F0C3
:1031C0001BC015F01CC016F01DC017F01EC018F073
:1031D000090ED8901536163617361836E82EE9EF50
:1031E00018F01550161017101810D8B4FAEF18F080
:1031F000FDEF18F0010EFEEF18F0000E116E126ACE
:1032000006EF19F0000E126E040E116E120011C0BE
:1032100018F012C019F013C01AF014C01BF01506F4
:10322000D8A01606152806E11628D8A41AEF19F01A
:103230001CEF19F029EF19F0000E126E000E116E3E
:1032400071EF19F0184A192A1A4A1B2A1506D8A034
:10325000160618C0D9FF19C0DAFFDF50D8B433EF13
:1032600019F035EF19F060EF19F01AC0F6FF1BC026
:10327000F7FF0800F5500009D8B441EF19F043EF0B
:1032800019F060EF19F015501610D8B44AEF19F084
:103290004CEF19F060EF19F018C0D9FF19C0DAFF30
:1032A000DF50176E1AC0F6FF1BC0F7FF0800F5507D
:1032B0001718D8B45EEF19F060EF19F022EF19F08B
:1032C00018C0D9FF19C0DAFFDF50176E1AC0F6FF19
:1032D0001BC0F7FF0800F550175C116E126AD8A0EA
:1032E0001206120013501410D8B479EF19F07BEFC6
:1032F00019F084EF19F013501410D8A482EF19F0CC
:1033000084EF19F089EF19F011504FEC1EF0D6EF51
:1033100019F020EE04F01350D9261450DA22DE50B2
:10332000DE10D8B496EF19F098EF19F0B3EF19F05A
:1033300020EE04F01350D9261450DA2210EE02F0D9
:103340001350E1261450E222DE50E65CE650800A7B
:10335000196EDE50800A1958D8B0B1EF19F0B3EFEA
:1033600019F0D6EF19F020EE02F01350D9261450C0
:10337000DA22DECF15F0DDCF16F013C0D9FF14C06E
:10338000DAFFDECF17F0DDCF18F015501724D96E15
:1033900016501820DA6E11C0DFFF20EE02F0135035
:1033A000D9261450DA22DE2A000EDD221200000E89
:1033B000166E14BEE0EF19F0DEEF19F0E6EF19F02B
:1033C000136C141ED8B0142A010E166E12BEEDEF47
:1033D00019F0EBEF19F0F3EF19F0116C121ED8B0E1
:1033E000122A010E161A000E186E000E176E1350D8
:1033F0001410D8B4FEEF19F000EF1AF028EF1AF00D
:10340000010E156E08EF1AF0D89013361436152AEF
:1034100014AE0DEF1AF00FEF1AF004EF1AF0D89077
:10342000173618361350115C14501258D8A01BEFE1
:103430001AF01DEF1AF022EF1AF01350115E14501B
:10344000125A1780D89014321332152E0FEF1AF03B
:103450001650D8B42EEF1AF030EF1AF034EF1AF0FD
:10346000176C181ED8B0182A17C011F018C012F027
:10347000120046A03EEF1AF040EF1AF04AEF1AF0A1
:1034800023C01AF024C01BF021C01CF022C01DF084
:1034900081EC1DF026BE4FEF1AF051EF1AF057EFF6
:1034A0001AF025C02AF026C02BF05BEF1AF0000EB0
:1034B0002B6E000E2A6E000E296E000E286E6DEF28
:1034C0001AF0000E126E200E116E21C013F022C0F1
:1034D00014F072EC19F0284A292A2A50285C295045
:1034E000800A276E2B50800A2758D8A07AEF1AF04E
:1034F0007CEF1AF061EF1AF046B081EF1AF083EF1B
:103500001AF08DEF1AF023C01AF024C01BF021C06E
:103510001CF022C01DF081EC1DF023C011F024C06E
:1035200012F0F7EC1DF02A501124216E2B501220BE
:10353000226E12008350F00B836EF00E9516959C50
:10354000959A95988C9C8C9A8C98620E126E660E49
:10355000E82EFED7122EFCD7300E36EC1DF0210ED1
:10356000126E760EE82EFED7122EFCD700D0300E4B
:1035700036EC1DF0A60EE82EFED700D0320E36EC4B
:103580001DF0A60EE82EFED700D0A60EE82EFED720
:1035900000D0280E36EC1DF0A60EE82EFED700D087
:1035A000080E36EC1DF0A60EE82EFED700D00F0E4A
:1035B00036EC1DF0A60EE82EFED700D0010E36EC3C
:1035C0001DF0A60EE82EFED700D0040E36EC1DF03E
:1035D000A60EE82EFED700D0A60EE82EFED700D00D
:1035E000060E36EC1DF00C0E36EC1DF01200000E2F
:1035F000166E12BE00EF1BF0FEEF1AF006EF1BF086
:10360000116C121ED8B0122A010E166E14BE0DEFE8
:103610001BF00BEF1BF011EF1BF0136C141ED8B056
:10362000142A13501410D8B418EF1BF01AEF1BF023
:103630003EEF1BF0010E156E22EF1BF0D8901336F3
:103640001436152A14AE27EF1BF029EF1BF01EEFDE
:103650001BF01350115C14501258D8A032EF1BF01D
:1036600034EF1BF038EF1BF01350115E1450125A58
:10367000D89014321332152E29EF1BF01650D8B4FF
:1036800044EF1BF046EF1BF04AEF1BF0116C121ECB
:10369000D8B0122A11C011F012C012F01200000EA0
:1036A0001114196E000E12141A6E800E13141B6E74
:1036B0007F0E14141C6E19501A101B101C10D8A465
:1036C00064EF1BF066EF1BF06EEF1BF0000E116E47
:1036D000000E126E000E136E000E146E000E151406
:1036E000196E000E16141A6E800E17141B6E7F0EC4
:1036F00018141C6E19501A101B101C10D8A483EF3C
:103700001BF085EF1BF08DEF1BF0000E156E000E09
:10371000166E000E176E000E186E155011180FE180
:10372000165012180CE11750131809E1185014180C
:10373000D8B49DEF1BF09FEF1BF0A2EF1BF0D890C9
:10374000A3EF1BF0D8801200BEEF1BF0A60EE82EF0
:10375000FED700D012C0F6FF13C0F7FFF86A070EBD
:10376000F76403D00800F55005D0F6CFE1FFF7CF9E
:10377000E2FFE75066EC1CF0124A132A12C0F6FF73
:1037800013C0F7FFF86A070EF76403D00800F5507E
:1037900005D0F6CFE1FFF7CFE2FFE7500009D8A44C
:1037A000D4EF1BF0D6EF1BF0A6EF1BF01200BCC04D
:1037B000C0F0BDC0C1F0000E0001DE6F000EDD6F75
:1037C000F5EF1BF0BAC0A4F0BBC0A5F0C00EA66F09
:1037D000000EA76FBEC0A8F0BFC0A9F002EC0FF0AA
:1037E0000001A451DD27A551DE23C0C0F6FFC1C0F2
:1037F000F7FF0800F5500009D8A401EF1CF003EF13
:103800001CF0E2EF1BF0DDC0BAF0DEC0BBF012002E
:10381000BF0E196EFF0E1A6E17C01BF018C01CF0F9
:1038200019501B261A501C221C500AE11A0E1B5C50
:10383000D8A01DEF1CF020EF1CF0010E21EF1CF0B2
:10384000000E1D6E1E6A1D501E10D8B42AEF1CF00B
:103850002CEF1CF033EF1CF0200E1710176E1850D1
:10386000186E37EF1CF017C017F018C018F01200D0
:1038700013C017F014C018F011C019F012C01AF0DC
:103880001750156E1850166E174A182A15C0F6FFF5
:1038900016C0F7FFF86A19C0D9FF1AC0DAFF194A33
:1038A0001A2A070EF76403D00800F55005D0F6CFAA
:1038B000E1FFF7CFE2FFE750DF6EDF50D8A463EF00
:1038C0001CF065EF1CF040EF1CF01200116EA60E0C
:1038D000E82EFED700D0F00E8316F00E95161138A4
:1038E0000F0B0F0B8310836E8C9C8C8A080EE82EB6
:1038F000FED700F08C88080EE82EFED700F08C98DA
:10390000F00E831611500F0B8312080EE82EFED70F
:1039100000F08C88080EE82EFED700F08C980F0E71
:10392000951212009A0EF66E3C0EF76E000EF86EAF
:1039300000EE4AF010EE04F00900F5CFEEFFE5507E
:10394000E150FAE101EE00F0500EEE6AE806FDE10A
:1039500000EED9F0090EEE6AE806FDE100EE3EF059
:103960000C0EEE6AE806FDE14E904E92000EF86EE7
:103970000001EBEF16F0C60E0001CA6F000ECB6F10
:10398000C2C0CCF0C3C0CDF0000ECF6F000ECE6F22
:10399000000ED16F000ED06FCC0EBA6F000EBB6F51
:1039A000C4C0BCF0C5C0BDF0CA0EBE6F000EBF6F74
:1039B000D7EC1BF00001CE51C225D96ECF51C321E7
:1039C000DA6E000EDF6E1200010E176E200E111857
:1039D0001210D8B4EEEF1CF0F0EF1CF009EF1DF060
:1039E000F70E136EFF0E146E11C015F012C016F014
:1039F0001350152614501622165009E1050E155CB9
:103A0000D8A005EF1DF007EF1DF009EF1DF0000E27
:103A1000176E17C011F0126A12000600F2A413EF1D
:103A20001DF015EF1DF034EF1DF0000ED76E6D0E7A
:103A3000D66E4AC001F04BC002F04CC003F04DC03E
:103A400004F0000E056E000E066E000E076E3F0EAF
:103A5000086EA2EC0CF001C04AF002C04BF003C0AB
:103A60004CF004C04DF0F2944E921100116EF00E25
:103A70008316F00E951611380F0B0F0B8310836E03
:103A80008C9C8C9A080EE82EFED700F08C88080ECD
:103A9000E82EFED700F08C98F00E831611500F0B15
:103AA0008312080EE82EFED700F08C88080EE82E50
:103AB000FED700F08C980F0E95121200000E2E1AF1
:103AC000000E2F1A000E301A800E311A2AC011F083
:103AD0002BC012F02CC013F02DC014F02EC015F026
:103AE0002FC016F030C017F031C018F042EC0AF0C9
:103AF00011C02AF012C02BF013C02CF014C02DF00E
:103B00001200000E206E000E1F6E92EF1DF01EC000
:103B100011F0126A1CC013F01DC014F072EC19F001
:103B20001F4A202A1F501A24D96E20501B20DA6EFB
:103B3000DF501E6E1E50D8A4A0EF1DF0A2EF1DF0A6
:103B400087EF1DF01200BF0E136EFF0E146E11C032
:103B500015F012C016F013501526145016221650E8
:103B60000AE11A0E155CD8A0B8EF1DF0BBEF1DF0EE
:103B7000010EBCEF1DF0000E116E126A1200115002
:103B8000121013101410D8B4C8EF1DF0CAEF1DF0B6
:103B9000D2EF1DF0000E111A000E121A000E131AA9
:103BA000800E141A11C011F012C012F013C013F0DD
:103BB00014C014F01200D00E136EFF0E146E11C05C
:103BC00015F012C016F01350152614501622165078
:103BD0000AE10A0E155CD8A0F0EF1DF0F3EF1DF01E
:103BE000010EF4EF1DF0000E116E126A120011C0EA
:103BF00013F012C014F0FFEF1DF0114A122A11C089
:103C0000D9FF12C0DAFFDF50D8A409EF1EF00BEF86
:103C10001EF0FDEF1DF01350115C116E1450125880
:103C2000126E120013BE1DEF1EF0135008E11204B5
:103C3000D8A01DEF1EF01FEF1EF025EF1EF0145050
:103C4000C00F36EC1DF029EF1EF01450800F36EC3B
:103C50001DF0120011501302F3CF15F0F4CF16F03F
:103C600011501402F350162612501302F350162668
:103C700015C011F016C012F01200D58ED58CD59A51
:103C8000D588D586D550F80B0609D56E000ED76EAF
:103C90006D0ED66EF28AF28E120000000040120005
:020000040020DA
:08000000FFFFFFFFFFFFFFFF00
:020000040030CA
:0E000000240C1F1FFF8385FF0FC00FE00F4071
:00000001FF
