:0400000007EF00F016
:0A0008004E827DED1BF02BEF1BF084
:100800000044697374616E636961203D2000494E44
:1008100046004E414E00696E66006E616E006C6669
:1008200000256600636D0000000E0001876F000E5A
:10083000866F62C098F063C099F064C09AF065C09A
:100840009BF09BBF28EF04F026EF04F03EEF04F08E
:10085000000E876F010E866F98C011F099C012F0DC
:100860009AC013F09BC014F02FEC1CF011C098F04C
:1008700012C099F013C09AF014C09BF0000E000152
:100880009F6F000E9E6F42C08AF043C08BF086516E
:100890008711D8A44EEF04F050EF04F057EF04F0A6
:1008A00046A455EF04F057EF04F071EF04F08651C1
:1008B0008711D8A45EEF04F060EF04F066EF04F057
:1008C000000E6D6F2B0E6C6F6AEF04F0000E6D6FF3
:1008D0002D0E6C6F6CC000F19E4B9F2B8A07D8A029
:1008E0008B0798C011F099C012F09AC013F09BC00A
:1008F00014F021EC17F011041210D8A482EF04F0C8
:1009000084EF04F0DBEF04F0BF0E0001676FFF0E11
:10091000686F6651696F6A6B6751692768516A230E
:100920006A510AE11A0E695DD8A099EF04F09CEFB4
:1009300004F0010E9DEF04F0000E6E6F6F6B6E51B0
:100940006F11D8B4A6EF04F0A8EF04F0B6EF04F0EE
:10095000000E9E25116E010E9F21126E0E0E136E5B
:10096000080E146ED1EC1AF0C2EF04F0000E9E25B2
:10097000116E010E9F21126E160E136E080E146E6C
:10098000D1EC1AF00001FD0E8A27FF0E8B2360C008
:1009900021F061C022F0000E236E010E246E8AC089
:1009A00025F08BC026F0D2EC18F021C060F022C0F8
:1009B00061F040EF0AF098C011F099C012F09AC0AF
:1009C00013F09BC014F021EC17F011501210D8A4B2
:1009D000ECEF04F0EEEF04F02EEF05F0BF0E000197
:1009E000676FFF0E686F6651696F6A6B67516927A1
:1009F00068516A236A510AE11A0E695DD8A003EFB3
:100A000005F006EF05F0010E07EF05F0000E706F20
:100A1000716B70517111D8B410EF05F012EF05F041
:100A200020EF05F0000E9E25116E010E9F21126E23
:100A3000120E136E080E146ED1EC1AF0C2EF04F011
:100A4000000E9E25116E010E9F21126E1A0E136E5E
:100A5000080E146ED1EC1AF0C2EF04F0000E000183
:100A6000A06F000EA16F800EA26F3F0EA36F000E4D
:100A70009D6F000E9C6F98C011F099C012F09AC043
:100A800013F09BC014F0000E156E000E166E000ED3
:100A9000176E000E186EE8EC19F0D8B052EF05F0A2
:100AA00054EF05F0D7EF05F073EF05F0A0C011F09B
:100AB000A1C012F0A2C013F0A3C014F0000E156E76
:100AC000000E166E200E176E410E186E01EC0FF020
:100AD00011C0A0F012C0A1F013C0A2F014C0A3F086
:100AE00000019C4B9D2B98C02AF099C02BF09AC016
:100AF0002CF09BC02DF0000E156E000E166E200E11
:100B0000176E410E186EA0C011F0A1C012F0A2C065
:100B100013F0A3C014F001EC0FF011C02EF012C0BE
:100B20002FF013C030F014C031F09FEC16F0D8B0A5
:100B30009CEF05F09EEF05F056EF05F0BEEF05F0D7
:100B4000A0C011F0A1C012F0A2C013F0A3C014F015
:100B5000000E156E000E166E200E176E410E186EEA
:100B600016EC11F011C0A0F012C0A1F013C0A2F059
:100B700014C0A3F000019C07D8A09D0798C02AF0DC
:100B800099C02BF09AC02CF09BC02DF0A0C02EF085
:100B9000A1C02FF0A2C030F0A3C031F09FEC16F03E
:100BA000D8A0D5EF05F0D7EF05F0A0EF05F066C0AF
:100BB00017F0186AA1EC1AF0175000018D6F8DC064
:100BC0008CF0670E8D19D8A4E8EF05F0EAEF05F078
:100BD00010EF06F044504510D8A4F1EF05F0F3EF04
:100BE00005F0F7EF05F0000E456E010E446E45BEB0
:100BF00004EF06F0455006E14404D8B002EF06F0D9
:100C000004EF06F00AEF06F0000E896F060E886FFB
:100C100019EF06F044C088F045C089F019EF06F0DE
:100C200045BE15EF06F017EF06F004EF06F00AEFE9
:100C300006F0670E8D19D8A420EF06F022EF06F01B
:100C400051EF06F09DAF30EF06F0FC0E9C5DFF0EFD
:100C50009D59D8A02EEF06F030EF06F04FEF06F0CA
:100C6000FF0E676FFF0E686F88C069F089C06AF079
:100C70006751692768516A239C51695D6A51800AEE
:100C80006B6F9D51800A6B59D8A049EF06F04BEF6E
:100C900006F04FEF06F0660E8C6F51EF06F0650E12
:100CA0008C6F88C07EF089C07FF0670E8D19D8A444
:100CB0005CEF06F05EEF06F06EEF06F0660E8C1944
:100CC000D8A465EF06F067EF06F070EF06F09DBF61
:100CD0006EEF06F06CEF06F070EF06F07E4B7F2BA8
:100CE000660E8C19D8A477EF06F079EF06F099EF2D
:100CF00006F09DBF80EF06F07EEF06F08CEF06F069
:100D0000000EA06F000EA16F800EA26F3F0EA36FAA
:100D1000000E9D6F000E9C6F670E8D19D8B493EF77
:100D200006F095EF06F099EF06F09C517E279D5155
:100D30007F23000E976F000E966F98C08EF099C0BB
:100D40008FF09AC090F09BC091F0A0C080F0A1C03D
:100D500081F0A2C082F0A3C083F02AEF07F08EC01A
:100D600011F08FC012F090C013F091C014F0A0C029
:100D700015F0A1C016F0A2C017F0A3C018F016EC31
:100D800011F011C02AF012C02BF013C02CF014C0C7
:100D90002DF089EC14F02AC092F02BC093F02CC0F7
:100DA00094F02DC095F092C011F093C012F094C051
:100DB00013F095C014F01CEC16F011C084F012C0B2
:100DC00085F08EC02AF08FC02BF090C02CF091C01F
:100DD0002DF0A0C015F0A1C016F0A2C017F0A3C05E
:100DE00018F092C011F093C012F094C013F095C0A7
:100DF00014F001EC0FF011C02EF012C02FF013C050
:100E000030F014C031F0CEEC1BF02AC08EF02BC0B5
:100E10008FF02CC090F02DC091F0A0C011F0A1C0B7
:100E200012F0A2C013F0A3C014F0000E156E000E55
:100E3000166E200E176E410E186E16EC11F011C0D2
:100E4000A0F012C0A1F013C0A2F014C0A3F00001E2
:100E5000964B972B7E51965D9751800A676F7F5115
:100E6000800A6759D8A037EF07F039EF07F0AFEFE6
:100E700006F0A0C011F0A1C012F0A2C013F0A3C0F0
:100E800014F0000E156E000E166EA00E176E400EBA
:100E9000186E01EC0FF011C092F012C093F013C065
:100EA00094F014C095F08EC02AF08FC02BF090C043
:100EB0002CF091C02DF092C02EF093C02FF094C072
:100EC00030F095C031F09FEC16F0D8B06AEF07F023
:100ED0006CEF07F077EF07F0000E0001926F000E45
:100EE000936F000E946F000E956FA0EF07F08EC009
:100EF00011F08FC012F090C013F091C014F092C0A6
:100F000015F093C016F094C017F095C018F0E8ECF7
:100F100019F0D8A08EEF07F090EF07F0A0EF07F0E0
:100F2000000184B196EF07F098EF07F0A0EF07F00B
:100F3000000E926F000E936F000E946F000E956F6F
:100F400098C011F099C012F09AC013F09BC014F031
:100F500092C015F093C016F094C017F095C018F029
:100F600041EC0AF011C08EF012C08FF013C090F067
:100F700014C091F08EC02AF08FC02BF090C02CF0DE
:100F800091C02DF0000E156E000E166E200E176E1D
:100F9000410E186E80C011F081C012F082C013F0B3
:100FA00083C014F001EC0FF011C02EF012C02FF02E
:100FB00013C030F014C031F09FEC16F0D8A0E3EF6E
:100FC00007F0E5EF07F00EEF08F000019C4B9D2BBA
:100FD00080C011F081C012F082C013F083C014F001
:100FE000000E156E000E166E200E176E410E186E56
:100FF00001EC0FF011C080F012C081F013C082F03C
:1010000014C083F0660E00018C19D8A40AEF08F012
:101010000CEF08F00EEF08F07E4B7F2B80C0A0F0A5
:1010200081C0A1F082C0A2F083C0A3F0650E0001D0
:101030008C19D8B41EEF08F020EF08F026EF08F066
:101040009CC07CF09DC07DF02AEF08F0000E7D6F03
:10105000000E7C6F000E7B6F000E7A6F000E796FB2
:10106000000E786F000E976F000E966F26EF09F056
:101070008EC011F08FC012F090C013F091C014F028
:10108000A0C015F0A1C016F0A2C017F0A3C018F0C0
:1010900016EC11F011C02AF012C02BF013C02CF086
:1010A00014C02DF089EC14F02AC092F02BC093F0FC
:1010B0002CC094F02DC095F092C011F093C012F0A6
:1010C00094C013F095C014F01CEC16F011C084F01D
:1010D00012C085F046B86FEF08F071EF08F08FEF9F
:1010E00008F0000184518511D8A479EF08F07BEF56
:1010F00008F08FEF08F0670E8D19D8A482EF08F082
:1011000084EF08F08FEF08F07DBF8BEF08F089EFD8
:1011100008F08FEF08F0784B792BDAEF08F0000138
:101120007A517B11D8A497EF08F099EF08F0C3EF3C
:1011300008F07DBFA0EF08F09EEF08F0C3EF08F0C5
:10114000000E9E25D96E010E9F21DA6E2E0EDF6EE7
:101150009E4B9F2B8A07D8A08B07000E7B6F010E3A
:101160007A6FC3EF08F0000E9E25D96E010E9F2105
:10117000DA6E300EDF6E9E4B9F2B8A07D8A08B074E
:101180007807D8A0790778517911D8A4CAEF08F068
:10119000CCEF08F0B3EF08F0000E9E25D96E010EDB
:1011A0009F21DA6E8451300FDF6E9E4B9F2B8A0792
:1011B000D8A08B078EC02AF08FC02BF090C02CF0E7
:1011C00091C02DF0A0C015F0A1C016F0A2C017F07C
:1011D000A3C018F092C011F093C012F094C013F0A5
:1011E00095C014F001EC0FF011C02EF012C02FF0DA
:1011F00013C030F014C031F0CEEC1BF02AC08EF0DA
:101200002BC08FF02CC090F02DC091F0A0C011F039
:10121000A1C012F0A2C013F0A3C014F0000E156E0E
:10122000000E166E200E176E410E186E16EC11F0A1
:1012300011C0A0F012C0A1F013C0A2F014C0A3F01E
:1012400000017C07D8A07D07964B972B7E51965DB9
:101250009751800A676F7F51800A6759D8B033EF82
:1012600009F035EF09F043EF09F09FBF41EF09F0B6
:101270009F5109E14B0E9E5DD8A041EF09F043EF6D
:1012800009F038EF08F07A517B11D8A44AEF09F041
:101290004CEF09F05DEF09F046A851EF09F053EF6C
:1012A00009F05DEF09F0000E9E25D96E010E9F2119
:1012B000DA6E2E0EDF6E9E4B9F2B000E9E25D96E92
:1012C000010E9F21DA6E000EDF6E650E8C19D8A418
:1012D0006CEF09F06EEF09F0C7EF04F0000E976FA6
:1012E0004F0E966F000E9625D96E010E9721DA6E7D
:1012F000000EDF6E000E876F000E866F9DBF85EFBC
:1013000009F083EF09F08DEF09F0000E876F010EF1
:10131000866F9C6D9D1FD8B09D2B000E896F020EAD
:10132000886FBEEF09F09607D8A09707000E9625A4
:10133000D96E010E9721DA6E9CC011F09DC012F09B
:10134000000E146E0A0E136E90EC19F01150300F4F
:10135000DF6E9CC011F09DC012F0000E146E0A0EDC
:10136000136E70EC18F011C09CF012C09DF00001DB
:101370008807D8A089078A07D8A08B079C519D11A0
:10138000D8A4C5EF09F0C7EF09F093EF09F089BFC2
:10139000D4EF09F0895106E18805D8B0D2EF09F001
:1013A000D4EF09F093EF09F09607D8A0970786517C
:1013B0008711D8A4DEEF09F0E0EF09F0E6EF09F0BD
:1013C000000E736F2B0E726FEAEF09F0000E736F51
:1013D0002D0E726F000E9625D96E010E9721DA6ED2
:1013E00072C0DFFF8A07D8A08B079607D8A097079F
:1013F000BF0E676FFF0E686F6651696F6A6B67514A
:10140000692768516A236A510AE11A0E695DD8A0FA
:101410000CEF0AF00FEF0AF0010E10EF0AF0000EC9
:10142000766F776B76517711D8A419EF0AF01BEF1E
:101430000AF021EF0AF0000E756F650E746F25EF4C
:101440000AF0000E756F450E746F000E9625D96E6A
:10145000010E9721DA6E74C0DFFF8A07D8A08B07D0
:10146000000E9E25116E010E9F21126E000E962514
:10147000136E010E9721146ED1EC1AF0C7EF04F031
:1014800012001450800B1D6E145014241F6E13AEE6
:101490004CEF0AF04EEF0AF04FEF0AF01F801F509A
:1014A000D8B455EF0AF057EF0AF06CEF0AF01F2896
:1014B000D8A45DEF0AF05FEF0AF067EF0AF0000EC4
:1014C000116E000E126E000E136E000E146E138E4F
:1014D000000E146E74EF0AF0000E116E000E126E04
:1014E000000E136E000E146E1850800B1E6E1D50F1
:1014F0001E18D8B47EEF0AF080EF0AF081EF0AF0F0
:101500001D8C185018241E6E17AE89EF0AF08BEF51
:101510000AF08CEF0AF01E801E50D8B492EF0AF049
:1015200094EF0AF0A9EF0AF01E28D8A49AEF0AF067
:101530009CEF0AF0A4EF0AF0000E156E000E166E76
:10154000000E176E000E186E178E000E186EB1EF9B
:101550000AF0000E156E000E166E000E176E000ECD
:10156000186E1F501E5CD8B0B8EF0AF0BAEF0AF040
:10157000E1EF0AF01DACBFEF0AF0C1EF0AF0C3EFD4
:101580000AF0800E1D1A1FC020F01EC01FF020C0E0
:101590001EF011C020F015C011F020C015F012C0CF
:1015A00020F016C012F020C016F013C020F017C0B3
:1015B00013F020C017F014C020F018C014F020C0A1
:1015C00018F0000E206E1F501EC019F01A6A195E26
:1015D000000E1A5A1ABEF6EF0AF01A5009E11A0E56
:1015E000195CD8A0F6EF0AF0F8EF0AF02FEF0BF035
:1015F0001150121013101410D8A401EF0BF004EFC7
:101600000BF0010E05EF0BF0000E206E000E116EB8
:10161000000E126E000E136E000E146E1EC01FF030
:1016200038EF0BF020A017EF0BF019EF0BF01FEFC6
:101630000BF0D89020300109206E21EF0BF0D890EC
:10164000203211A026EF0BF028EF0BF029EF0BF062
:10165000208E143414321332123211321F2A1E50CB
:101660001F5CD8A036EF0BF038EF0BF012EF0BF049
:101670001DBC3DEF0BF03FEF0BF07FEF0BF01F5069
:10168000D8A445EF0BF047EF0BF051EF0BF0000E35
:10169000116E000E126E000E136E000E146EA0EF8F
:1016A0000CF0155011261650122217501322185004
:1016B000142214A05EEF0BF060EF0BF00CEF0CF0B7
:1016C00020A065EF0BF067EF0BF06DEF0BF0D890FB
:1016D00020300109206E6FEF0BF0D890203211A05E
:1016E00074EF0BF076EF0BF077EF0BF0208E1434E5
:1016F00014321332123211321F2A0CEF0CF0155033
:10170000115C16501258175013581450800A196E55
:101710001850800A1958D8B090EF0BF092EF0BF0E8
:10172000BDEF0BF01150155C196E125016581A6E61
:10173000135017581B6E145018581C6EFF0E1924A6
:10174000116EFF0E1A20126EFF0E1B20136EFF0E7D
:101750001C20146E800E1D1A206C2050D8A4B3EFEC
:101760000BF0B5EF0BF0C5EF0BF0010E1126000EDC
:10177000122213221422C5EF0BF01550115E1650E1
:10178000125A1750135A1850145A1150121013109D
:101790001410D8A4CEEF0BF0D0EF0BF005EF0CF047
:1017A0002050D8A4D6EF0BF0D8EF0BF005EF0CF0DB
:1017B000000E116E000E126E000E136E000E146EEF
:1017C000A0EF0CF0D890113612361336143620AE36
:1017D000ECEF0BF0EEEF0BF0EFEF0BF0118020A031
:1017E000F4EF0BF0F6EF0BF0FAEF0BF0D8802036A9
:1017F000FCEF0BF0D89020361F50D8B402EF0CF05D
:1018000004EF0CF005EF0CF01F0613AE0AEF0CF01E
:101810000CEF0CF0E2EF0BF0000E1E6E20AE13EF9B
:101820000CF015EF0CF02DEF0CF020C019F07F0E2E
:101830001916D8B41EEF0CF020EF0CF024EF0CF0CA
:10184000010E1E6E2DEF0CF011A029EF0CF02BEF06
:101850000CF02DEF0CF020EF0CF01E50D8B433EF4D
:101860000CF035EF0CF060EF0CF0010E1126000EBD
:1018700012221322142214A040EF0CF042EF0CF0BD
:1018800060EF0CF011C019F012C01AF013C01BF079
:1018900014C01CF01C341C321B321A32193219C00D
:1018A00011F01AC012F01BC013F01CC014F01F2856
:1018B000D8B45DEF0CF05FEF0CF060EF0CF01F2A76
:1018C0001F28D8B466EF0CF068EF0CF070EF0CF046
:1018D0001F50D8A46EEF0CF070EF0CF082EF0CF0FC
:1018E000000E116E000E126E000E136E000E146EBE
:1018F0001F50D8A47EEF0CF080EF0CF082EF0CF0BC
:10190000000E1D6E1FA087EF0CF089EF0CF08CEF1E
:101910000CF0138E8DEF0CF0139ED8901F30146EC8
:101920001DAE95EF0CF097EF0CF098EF0CF0148EC5
:1019300011C011F012C012F013C013F014C014F053
:1019400012000450800B0D6E045004240F6E03AE81
:10195000ACEF0CF0AEEF0CF0AFEF0CF00F800F50CF
:10196000D8B4B5EF0CF0B7EF0CF0CCEF0CF00F28BB
:10197000D8A4BDEF0CF0BFEF0CF0C7EF0CF0000ED9
:10198000016E000E026E000E036E000E046E038EDA
:10199000000E046ED4EF0CF0000E016E000E026E0D
:1019A000000E036E000E046E0850800B0E6E0D507C
:1019B0000E18D8B4DEEF0CF0E0EF0CF0E1EF0CF015
:1019C0000D8C085008240E6E07AEE9EF0CF0EBEF1B
:1019D0000CF0ECEF0CF00E800E50D8B4F2EF0CF0DF
:1019E000F4EF0CF009EF0DF00E28D8A4FAEF0CF08C
:1019F000FCEF0CF004EF0DF0000E056E000E066E0D
:101A0000000E076E000E086E078E000E086E11EFB6
:101A10000DF0000E056E000E066E000E076E000E35
:101A2000086E0F500E5CD8B018EF0DF01AEF0DF0E5
:101A300041EF0DF00DAC1FEF0DF021EF0DF023EF96
:101A40000DF0800E0D1A0FC010F00EC00FF010C078
:101A50000EF001C010F005C001F010C005F002C08A
:101A600010F006C002F010C006F003C010F007C06E
:101A700003F010C007F004C010F008C004F010C05C
:101A800008F0000E106E0F500EC009F00A6A095ED1
:101A9000000E0A5A0ABE56EF0DF00A5009E11A0E5E
:101AA000095CD8A056EF0DF058EF0DF08FEF0DF058
:101AB0000150021003100410D8A461EF0DF064EF80
:101AC0000DF0010E65EF0DF0000E106E000E016EB0
:101AD000000E026E000E036E000E046E0EC00FF0BC
:101AE00098EF0DF010A077EF0DF079EF0DF07FEF8C
:101AF0000DF0D89010300109106E81EF0DF0D890E4
:101B0000103201A086EF0DF088EF0DF089EF0DF097
:101B1000108E043404320332023201320F2A0E5086
:101B20000F5CD8A096EF0DF098EF0DF072EF0DF06E
:101B30000DBC9DEF0DF09FEF0DF0DFEF0DF00F509E
:101B4000D8A4A5EF0DF0A7EF0DF0B1EF0DF0000E4A
:101B5000016E000E026E000E036E000E046E00EFAA
:101B60000FF00550012606500222075003220850AC
:101B7000042204A0BEEF0DF0C0EF0DF06CEF0EF0EC
:101B800010A0C5EF0DF0C7EF0DF0CDEF0DF0D89020
:101B900010300109106ECFEF0DF0D890103201A077
:101BA000D4EF0DF0D6EF0DF0D7EF0DF0108E04341A
:101BB00004320332023201320F2A6CEF0EF005506C
:101BC000015C06500258075003580450800A096E01
:101BD0000850800A0958D8B0F0EF0DF0F2EF0DF080
:101BE0001DEF0EF00150055C096E025006580A6E9A
:101BF000035007580B6E045008580C6EFF0E092452
:101C0000016EFF0E0A20026EFF0E0B20036EFF0E08
:101C10000C20046E800E0D1A106C1050D8A413EF17
:101C20000EF015EF0EF025EF0EF0010E0126000E5E
:101C300002220322042225EF0EF00550015E065019
:101C4000025A0750035A0850045A01500210031058
:101C50000410D8A42EEF0EF030EF0EF065EF0EF06A
:101C60001050D8A436EF0EF038EF0EF065EF0EF0FE
:101C7000000E016E000E026E000E036E000E046E6A
:101C800000EF0FF0D890013602360336043610AE5E
:101C90004CEF0EF04EEF0EF04FEF0EF0018010A063
:101CA00054EF0EF056EF0EF05AEF0EF0D8801036CB
:101CB0005CEF0EF0D89010360F50D8B462EF0EF0F3
:101CC00064EF0EF065EF0EF00F0603AE6AEF0EF054
:101CD0006CEF0EF042EF0EF0000E0E6E10AE73EFD2
:101CE0000EF075EF0EF08DEF0EF010C009F07F0EC4
:101CF0000916D8B47EEF0EF080EF0EF084EF0EF0F0
:101D0000010E0E6E8DEF0EF001A089EF0EF08BEF3D
:101D10000EF08DEF0EF080EF0EF00E50D8B493EF72
:101D20000EF095EF0EF0C0EF0EF0010E0126000E42
:101D300002220322042204A0A0EF0EF0A2EF0EF074
:101D4000C0EF0EF001C009F002C00AF003C00BF0B2
:101D500004C00CF00C340C320B320A32093209C0C8
:101D600001F00AC002F00BC003F00CC004F00F2811
:101D7000D8B4BDEF0EF0BFEF0EF0C0EF0EF00F2A9B
:101D80000F28D8B4C6EF0EF0C8EF0EF0D0EF0EF06B
:101D90000F50D8A4CEEF0EF0D0EF0EF0E2EF0EF021
:101DA000000E016E000E026E000E036E000E046E39
:101DB0000F50D8A4DEEF0EF0E0EF0EF0E2EF0EF0E1
:101DC000000E0D6E0FA0E7EF0EF0E9EF0EF0ECEF56
:101DD0000EF0038EEDEF0EF0039ED8900F30046EE0
:101DE0000DAEF5EF0EF0F7EF0EF0F8EF0EF0048EFB
:101DF00001C001F002C002F003C003F004C004F00F
:101E000012001450800B1D6E14501424236E13AE58
:101E10000CEF0FF00EEF0FF00FEF0FF023802350B9
:101E2000D8B415EF0FF017EF0FF02AEF0FF02328BB
:101E3000D8A41DEF0FF01FEF0FF027EF0FF0000EEB
:101E4000116E000E126E000E136E000E146E138EC5
:101E500032EF0FF0000E116E000E126E000E136EB8
:101E6000000E146E1850800B1D1A18501824226E84
:101E700017AE3DEF0FF03FEF0FF040EF0FF0228075
:101E80002250D8B446EF0FF048EF0FF05BEF0FF0A1
:101E90002228D8A44EEF0FF050EF0FF058EF0FF0BC
:101EA000000E156E000E166E000E176E000E186EE8
:101EB000178E63EF0FF0000E156E000E166E000EFB
:101EC000176E000E186E2250D8B469EF0FF06BEF4A
:101ED0000FF073EF0FF02350D8A471EF0FF073EFF2
:101EE0000FF07DEF0FF0000E116E000E126E000E5F
:101EF000136E000E146E15EF11F017501102F3CF90
:101F000028F0F4CF29F028501E6E1F6A206A216A3B
:101F10002950246E256A266A276A16501202F3CFCA
:101F200028F0F4CF29F028501E26000E1F22202270
:101F3000212229502426000E252226222722155050
:101F40001302F3CF28F0F4CF29F028501E26000EFC
:101F50001F222022212229502426000E252226225B
:101F6000272220C021F01FC020F01EC01FF01E6AD3
:101F700015501202F3CF28F0F4CF29F028501E2676
:101F800029501F22000E2022000E2122165011027D
:101F9000F3CF28F0F4CF29F028501E2629501F2215
:101FA000000E2022000E212220C021F01FC020F0B0
:101FB0001EC01FF01E6A15501102F3CF28F0F4CF97
:101FC00029F028501E2629501F22000E2022000E24
:101FD000212217501202F3CF28F0F4CF29F0285015
:101FE000242629502522000E2622000E27221650D4
:101FF0001302F3CF28F0F4CF29F0285024262950DB
:102000002522000E2622000E272217501302F3CF9E
:1020100028F0F4CF29F02850196E29501A6E1B6A47
:102020001C6A1BC01CF01AC01BF019C01AF0196AF8
:10203000195024261A5025221B5026221C502722D4
:102040001EC019F01FC01AF020C01BF021C01CF0E8
:10205000190E30EF10F0D8901C321B321A321932A0
:10206000E82E2BEF10F0195024261A5025221B5071
:1020700026221C50272220C021F01FC020F01EC0A5
:102080001FF01E6A225023C019F01A6A1926000E8A
:102090001A22820E1924286EFF0E1A20296E66EF6E
:1020A00010F0D890243625362636273621AE5BEF41
:1020B00010F05DEF10F05EEF10F02480D8901E3627
:1020C0001F36203621362806D8A0290626AE6BEF0B
:1020D00010F06DEF10F051EF10F0000E226E21AEF7
:1020E00074EF10F076EF10F09AEF10F0FF0E1E1460
:1020F000196EFF0E1F141A6EFF0E20141B6E7F0E3A
:1021000021141C6E19501A101B101C10D8B48BEF20
:1021100010F08DEF10F091EF10F0010E226E9AEF9B
:1021200010F024A096EF10F098EF10F09AEF10F056
:102130008DEF10F02250D8B4A0EF10F0A2EF10F005
:10214000C6EF10F0010E2426000E2522262227229B
:1021500027A0ADEF10F0AFEF10F0C6EF10F024C0E5
:1021600019F025C01AF026C01BF027C01CF01C3443
:102170001C321B321A32193219C024F01AC025F051
:102180001BC026F01CC027F0284A292A29BED1EFFF
:1021900010F0295008E12828D8A0D1EF10F0D3EF93
:1021A00010F0DDEF10F0000E246E000E256E800E94
:1021B000266E7F0E276E0BEF11F029BEEAEF10F0AE
:1021C000295006E12804D8B0E8EF10F0EAEF10F04B
:1021D000F6EF10F0000E246E000E256E000E266E37
:1021E000000E276E000E1D6E0BEF11F028C023F0BD
:1021F000FF0E2416FF0E25167F0E2616000E27163C
:1022000023A005EF11F007EF11F008EF11F0268E73
:10221000D8902330276E1D50271224C011F025C0FE
:1022200012F026C013F027C014F012001450800BD7
:10223000216E14501424286E13AE21EF11F023EFF9
:1022400011F024EF11F028802850D8B42AEF11F0B3
:102250002CEF11F041EF11F02828D8A432EF11F043
:1022600034EF11F03CEF11F0000E116E000E126E03
:10227000000E136E000E146E138E000E146E49EFD6
:1022800011F0000E116E000E126E000E136E000E95
:10229000146E1850800B211A18501824296E17AE8E
:1022A00054EF11F056EF11F057EF11F0298029503B
:1022B000D8B45DEF11F05FEF11F074EF11F0292841
:1022C000D8A465EF11F067EF11F06FEF11F0000E79
:1022D000156E000E166E000E176E000E186E178E1D
:1022E000000E186E7CEF11F0000E156E000E166ECB
:1022F000000E176E000E186E1550161017101810DD
:10230000D8A485EF11F087EF11F09FEF11F0000EC8
:10231000116E000E126E000E136E000E146E800E03
:1023200013127F0E14122150141211C011F012C09A
:1023300012F013C013F014C014F0E2EF12F02850A2
:10234000D8A4A5EF11F0A7EF11F0B1EF11F0000E36
:10235000116E000E126E000E136E000E146EE2EF80
:1023600012F0295028C019F01A6A195E000E1A5A84
:102370007F0E1924226E000E1A20236E11C01DF04C
:1023800012C01EF013C01FF014C020F0000E116E1A
:10239000000E126E000E136E000E146E000E246EF0
:1023A000000E256E000E266E000E276E000E296EA2
:1023B00012EF12F02950D8B4E0EF11F0E2EF11F073
:1023C000F9EF11F0D8901D361E361F362036D89002
:1023D000113612361336143627AEF1EF11F0F3EF43
:1023E00011F0F4EF11F01180D890243625362636FE
:1023F000273615501D5C16501E5817501F58185080
:102400002058D8A006EF12F008EF12F011EF12F0EA
:10241000278C15501D5E16501E5A17501F5A185003
:10242000205A292A190E296418EF12F01AEF12F017
:10243000DAEF11F01D501E101F102010D8B423EF3A
:1024400012F025EF12F03DEF12F024803DEF12F074
:10245000D890113612361336143627AE32EF12F0FA
:1024600034EF12F035EF12F01180D8902436253673
:10247000263627362206D8A0230613AE42EF12F0E6
:1024800044EF12F028EF12F0000E296E27AE4BEF4A
:1024900012F04DEF12F071EF12F0FF0E2414196ECE
:1024A000FF0E25141A6EFF0E26141B6E7F0E2714C6
:1024B0001C6E19501A101B101C10D8B462EF12F0C9
:1024C00064EF12F068EF12F0010E296E71EF12F056
:1024D00011A06DEF12F06FEF12F071EF12F064EFD8
:1024E00012F02950D8B477EF12F079EF12F09DEF87
:1024F00012F0010E1126000E12221322142214A033
:1025000084EF12F086EF12F09DEF12F011C019F077
:1025100012C01AF013C01BF014C01CF01C341C3283
:102520001B321A32193219C011F01AC012F01BC036
:1025300013F01CC014F0224A232A23BEA8EF12F085
:10254000235008E12228D8A0A8EF12F0AAEF12F039
:10255000B5EF12F0000E236E2268000E116E000E11
:10256000126E000E136E000E146E23BEC2EF12F038
:10257000235006E12204D8B0C0EF12F0C2EF12F0EF
:10258000D0EF12F0000E236E000E226E000E116EC0
:10259000000E126E000E136E000E146E000E216EF1
:1025A00022C028F028A0D7EF12F0D9EF12F0DCEF0C
:1025B00012F0138EDDEF12F0139ED8902830146EB7
:1025C00093EF11F01200A6C0D9FFA7C0DAFFDECF4B
:1025D000F6FFDDCFF7FF0800F550250AD8A4F3EF8A
:1025E00012F0F5EF12F06DEF14F0A6C0D9FFA7C0FE
:1025F000DAFFDE2A000EDD22000E436E000E426E70
:1026000042C046F043C047F044684568A6C0D9FFC1
:10261000A7C0DAFFDECFF6FFDDCFF7FF0800F550E9
:10262000176E186AA1EC1AF017500001B06FB05184
:10263000D8B41DEF13F01FEF13F059EF13F0A6C03D
:10264000D9FFA7C0DAFFDECFAAF0DDCFABF0010ED5
:10265000AA27000EAB23AAC0F6FFABC0F7FF080005
:10266000F550176E186AA1EC1AF017500001B16FFF
:10267000B151D8B43EEF13F040EF13F059EF13F01F
:10268000A6C0D9FFA7C0DAFFDECFAAF0DDCFABF03E
:10269000020EAA27000EAB23AAC0F6FFABC0F7FFBD
:1026A0000800F550176E186AA1EC1AF017500001D7
:1026B000B26F660EB019D8A460EF13F062EF13F09A
:1026C000A2EF13F0A6C0D9FFA7C0DAFFDECFF6FF56
:1026D000DDCFF7FF0800F5CFB7F0A6C0D9FFA7C040
:1026E000DAFFDE2A000EDD22A8C0D9FFA9C0DAFF7A
:1026F000DFCFAAF0040EDE26DFCFABF0000EDD2226
:10270000AAC0D9FFABC0DAFFDECFB3F0DECFB4F0A2
:10271000DECFB5F0DECFB6F0A4C060F0A5C061F0AA
:10272000B3C062F0B4C063F0B5C064F0B6C065F089
:10273000B7C066F014EC04F060C0A4F061C0A5F06E
:1027400088EF14F0B00E116E000E126E1E0E136E96
:10275000080E146E000E166E020E156EA0EC17F029
:1027600011501210D8A4B7EF13F0B9EF13F035EFF2
:1027700014F0A6C0D9FFA7C0DAFFDECFAAF0DDCFE4
:10278000ABF0010E0001AA27000EAB23AAC0F6FF92
:10279000ABC0F7FF0800F5CFB7F0BF0EAA6FFF0E72
:1027A000AB6FA6C0D9FFA7C0DAFFDECFF6FFDDCF43
:1027B000F7FF0800F550AC6FAD6BAA51AC27AB51D9
:1027C000AD23AD510AE11A0EAC5DD8A0EAEF13F0CB
:1027D000EDEF13F0010EEEEF13F0000EAE6FAF6BE6
:1027E000AE51AF11D8B4F7EF13F0F9EF13F013EFC8
:1027F00014F0A8C0D9FFA9C0DAFFDFCFAAF0040EF9
:10280000DE26DFCFABF0000EDD22AAC0D9FFABC0C1
:10281000DAFFDECFB3F0DECFB4F0DECFB5F0DECF3F
:10282000B6F02BEF14F0A8C0D9FFA9C0DAFFDFCFB4
:10283000AAF0040EDE26DFCFABF0000EDD22AAC028
:10284000D9FFABC0DAFFDECFB3F0DECFB4F0DECF1E
:10285000B5F0DECFB6F0020EA6C0D9FFA7C0DAFFF2
:10286000DE26000EDD228CEF13F0A6C0D9FFA7C034
:10287000DAFFDECFF6FFDDCFF7FF0800F550250ABF
:10288000D8A445EF14F047EF14F05FEF14F0A6C0A2
:10289000D9FFA7C0DAFFDE2A000EDD22000E126E7D
:1028A000250E116EA4C013F0A5C014F00BEC18F0A7
:1028B000000E0001A56F010EA46F88EF14F0A6C0F2
:1028C000D9FFA7C0DAFFDE2A000EDD22000E0001CC
:1028D000A56F000EA46F88EF14F0A6C0D9FFA7C0A3
:1028E000DAFFDECFF6FFDDCFF7FF0800F550116EFF
:1028F000126AA4C013F0A5C014F00BEC18F0A6C027
:10290000D9FFA7C0DAFFDE2A000EDD2258EF14F04F
:102910001200D7C03AF0D8C03BF0D9C03CF0DAC0C2
:102920003DF02AC03AF02BC03BF02CC03CF02DC04B
:102930003DF0810E2E6EFF0E2F6E3AC030F03BC080
:1029400031F03CC032F03DC033F0180EADEF14F062
:10295000D8903332323231323032E82EA8EF14F0D0
:1029600030502E24386E000E2F20396E39BEC2EF43
:1029700014F0395009E1170E385CD8A0C2EF14F0FA
:10298000C4EF14F0CEEF14F02AC02AF02BC02BF0C5
:102990002CC02CF02DC02DF091EF15F039BED3EFE7
:1029A00014F0D5EF14F045EF15F038C02EF0FF0EFF
:1029B0002F6EFF0E306E7F0E316E000E326E2E6661
:1029C000E4EF14F0ECEF14F03234323231323032C2
:1029D0002F322E2EDFEF14F02FC034F030C035F040
:1029E00031C036F032C037F034503A142E6E3550C4
:1029F0003B142F6E36503C14306E37503D14316E00
:102A00002E502F1030103110D8A409EF15F00BEF15
:102A100015F00DEF15F0C4EF14F03AC02EF03BC0E6
:102A20002FF03CC030F03DC031F0200E1DEF15F00E
:102A3000D890313230322F322E32E82E18EF15F086
:102A40002E502F1030103110D8B429EF15F02BEF85
:102A500015F033EF15F034503A2635503B223650FE
:102A60003C2237503D22341C2E6E351C2F6E361CF6
:102A7000306E371C316E2E503A162F503B163050A8
:102A80003C1631503D1689EF15F03AC02EF03BC090
:102A90002FF03CC030F03DC031F0200E55EF15F066
:102AA000D890313230322F322E32E82E50EF15F0DE
:102AB0002E502F1030103110D8A461EF15F063EFB5
:102AC00015F06DEF15F0000E3A6E000E3B6E000E25
:102AD0003C6E000E3D6E89EF15F0D8903A342E6EA4
:102AE0003B342F6E3C34306E3D34316E2E502F10FF
:102AF00030103110D8B47FEF15F081EF15F089EF69
:102B000015F0000E3A6E000E3B6E800E3C6EBF0E4E
:102B10003D6E3AC02AF03BC02BF03CC02CF03DC0CB
:102B20002DF012000F0EC16E100E926E7EEC1CF096
:102B300033EC19F0000E4A6E000E4B6E000E4C6E18
:102B4000400E4D6E808A100EE82EFED700D0809A7F
:102B500080A8ADEF15F0AFEF15F0A8EF15F0000E5F
:102B6000D76E6D0ED66ED58E80B8B9EF15F0BBEF6F
:102B700015F0B4EF15F0D59EDD0E0001C06F000E0C
:102B8000C16F210EC26F080EC36F4AC0C4F04BC0A4
:102B9000C5F04CC0C6F04DC0C7F054EC1BF0000EA1
:102BA000136E000E126E000E156E000E146E66ECA3
:102BB0001CF0010E126E080E136E3DEC1AF0000EA2
:102BC000136E010E126E000E156E010E146E66EC81
:102BD0001CF0DD0E126E000E136E3DEC1AF0000EAE
:102BE000136E010E126E000E156E090E146E66EC59
:102BF0001CF0240E126E080E136E3DEC1AF0030E3C
:102C00000001D66F8A0ED56F550EE82EFED7D52F50
:102C1000FCD7D62FFAD700D0020E0001D66F860E51
:102C2000D56F990EE82EFED7D52FFCD7D62FFAD721
:102C30009AEF15F007EF00F0133414341A6E1A509F
:102C4000D8A425EF16F027EF16F031EF16F0000E9E
:102C5000116E000E126E000E136E000E146E9EEFBB
:102C600016F011C015F012C016F013C017F014C002
:102C700018F0200E41EF16F0D890183217321632A5
:102C80001532E82E3CEF16F01550196E138EFF0E1C
:102C90001116FF0E1216FF0E1316000E1416960EC6
:102CA0001A5E1ABE58EF16F056EF16F06EEF16F0D9
:102CB0001A50800A970FD8B060EF16F062EF16F046
:102CC00064EF16F027EF16F0D89014321332123258
:102CD00011321A3E64EF16F086EF16F01F0E1A64DA
:102CE00074EF16F076EF16F07EEF16F027EF16F081
:102CF000D89011361236133614361A061A50D8A444
:102D000084EF16F086EF16F078EF16F01950D8B46D
:102D10008CEF16F08EEF16F096EF16F0141E131EC1
:102D2000121E116C000E12221322142211C011F077
:102D300012C012F013C013F014C014F01200000EF1
:102D40002A14326E000E2B14336E800E2C14346E47
:102D50007F0E2D14356E3250331034103510D8A438
:102D6000B4EF16F0B6EF16F0BEEF16F0000E2A6EB6
:102D7000000E2B6E000E2C6E000E2D6E000E2E140B
:102D8000326E000E2F14336E800E3014346E7F0EB0
:102D90003114356E3250331034103510D8A4D3EFBF
:102DA00016F0D5EF16F0DDEF16F0000E2E6E000EC9
:102DB0002F6E000E306E000E316E2DAEE2EF16F06B
:102DC000E4EF16F0EDEF16F02A6C2B1ED8B02B2A8C
:102DD0002C1ED8B02C2A800E2D5631AEF2EF16F0F4
:102DE000F4EF16F0FDEF16F02E6C2F1ED8B02F2A40
:102DF000301ED8B0302A800E3156000E2A1A000E2E
:102E00002B1A000E2C1A800E2D1A000E2E1A000EF0
:102E10002F1A000E301A800E311A2E502A5C2F50B5
:102E20002B5830502C5831502D58D8B01AEF17F07D
:102E30001CEF17F01FEF17F0D89020EF17F0D88095
:102E400012003EC01BF03FC01CF040C01DF041C04E
:102E50001EF011C01BF012C01CF013C01DF014C0F6
:102E60001EF01BC015F01CC016F01DC017F01EC0D0
:102E700018F0180E41EF17F0D890183217321632AA
:102E80001532E82E3CEF17F01550196E1A6A1950DA
:102E90001A10D8A44EEF17F050EF17F070EF17F09C
:102EA000D8901B34156E1C34166E1D34176E1E34EC
:102EB000186E1550161017101810D8A462EF17F0DE
:102EC00064EF17F06AEF17F0000E126E020E116E2B
:102ED0009FEF17F0000E126E030E116E9FEF17F0AA
:102EE00019281A10D8A477EF17F079EF17F09BEF95
:102EF00017F01BC015F01CC016F01DC017F01EC047
:102F000018F0090ED8901536163617361836E82EF2
:102F100082EF17F01550161017101810D8B493EF51
:102F200017F096EF17F0010E97EF17F0000E116EE5
:102F3000126A9FEF17F0000E126E040E116E12004F
:102F400011C018F012C019F013C01AF014C01BF011
:102F50001506D8A01606152806E11628D8A4B3EF42
:102F600017F0B5EF17F0C2EF17F0000E126E000E5B
:102F7000116E0AEF18F0184A192A1A4A1B2A150668
:102F8000D8A0160618C0D9FF19C0DAFFDF50D8B490
:102F9000CCEF17F0CEEF17F0F9EF17F01AC0F6FFED
:102FA0001BC0F7FF0800F5500009D8B4DAEF17F09E
:102FB000DCEF17F0F9EF17F015501610D8B4E3EF67
:102FC00017F0E5EF17F0F9EF17F018C0D9FF19C0A7
:102FD000DAFFDF50176E1AC0F6FF1BC0F7FF0800BC
:102FE000F5501718D8B4F7EF17F0F9EF17F0BBEF5B
:102FF00017F018C0D9FF19C0DAFFDF50176E1AC0DA
:10300000F6FF1BC0F7FF0800F550175C116E126A3F
:10301000D8A01206120013501410D8B412EF18F0F2
:1030200014EF18F01DEF18F013501410D8A41BEF74
:1030300018F01DEF18F022EF18F011508CEC1CF076
:103040006FEF18F020EE04F01350D9261450DA2256
:10305000DE50DE10D8B42FEF18F031EF18F04CEF3F
:1030600018F020EE04F01350D9261450DA2210EE96
:1030700002F01350E1261450E222DE50E65CE650E6
:10308000800A196EDE50800A1958D8B04AEF18F03D
:103090004CEF18F06FEF18F020EE02F01350D92625
:1030A0001450DA22DECF15F0DDCF16F013C0D9FFB1
:1030B00014C0DAFFDECF17F0DDCF18F0155017245B
:1030C000D96E16501820DA6E11C0DFFF20EE02F024
:1030D0001350D9261450DA22DE2A000EDD22120007
:1030E000000E166E14BE79EF18F077EF18F07FEF30
:1030F00018F0136C141ED8B0142A010E166E12BEEE
:1031000086EF18F084EF18F08CEF18F0116C121E97
:10311000D8B0122A010E161A000E186E000E176E85
:1031200013501410D8B497EF18F099EF18F0C1EFBE
:1031300018F0010E156EA1EF18F0D8901336143662
:10314000152A14AEA6EF18F0A8EF18F09DEF18F0AE
:10315000D890173618361350115C14501258D8A056
:10316000B4EF18F0B6EF18F0BBEF18F01350115E83
:103170001450125A1780D89014321332152EA8EF1B
:1031800018F01650D8B4C7EF18F0C9EF18F0CDEF0B
:1031900018F0176C181ED8B0182A17C011F018C0F4
:1031A00012F0120046A0D7EF18F0D9EF18F0E3EFB5
:1031B00018F023C01AF024C01BF021C01CF022C05C
:1031C0001DF0F1EC1BF026BEE8EF18F0EAEF18F066
:1031D000F0EF18F025C02AF026C02BF0F4EF18F01D
:1031E000000E2B6E000E2A6E000E296E000E286E49
:1031F00006EF19F0000E126E200E116E21C013F0B2
:1032000022C014F00BEC18F0284A292A2A50285C16
:103210002950800A276E2B50800A2758D8A013EF18
:1032200019F015EF19F0FAEF18F046B01AEF19F08F
:103230001CEF19F026EF19F023C01AF024C01BF080
:1032400021C01CF022C01DF0F1EC1BF023C011F0D6
:1032500024C012F04BEC1CF02A501124216E2B508C
:103260001220226E12008350F00B836EF00E951622
:10327000959C959A95988C9C8C9A8C98620E126E5F
:10328000660EE82EFED7122EFCD7300EA6EC1BF0F1
:10329000210E126E760EE82EFED7122EFCD700D02D
:1032A000300EA6EC1BF0A60EE82EFED700D0320E94
:1032B000A6EC1BF0A60EE82EFED700D0A60EE82E38
:1032C000FED700D0280EA6EC1BF0A60EE82EFED7E7
:1032D00000D0080EA6EC1BF0A60EE82EFED700D0FC
:1032E0000F0EA6EC1BF0A60EE82EFED700D0010EA6
:1032F000A6EC1BF0A60EE82EFED700D0040EA6EC1E
:103300001BF0A60EE82EFED700D0A60EE82EFED7A4
:1033100000D0060EA6EC1BF00C0EA6EC1BF0120063
:10332000000E166E12BE99EF19F097EF19F09FEF8D
:1033300019F0116C121ED8B0122A010E166E14BEAE
:10334000A6EF19F0A4EF19F0AAEF19F0136C141EF0
:10335000D8B0142A13501410D8B4B1EF19F0B3EF49
:1033600019F0D7EF19F0010E156EBBEF19F0D890D8
:1033700013361436152A14AEC0EF19F0C2EF19F047
:10338000B7EF19F01350115C14501258D8A0CBEFBE
:1033900019F0CDEF19F0D1EF19F01350115E145060
:1033A000125AD89014321332152EC2EF19F016505B
:1033B000D8B4DDEF19F0DFEF19F0E3EF19F0116C7D
:1033C000121ED8B0122A11C011F012C012F0120051
:1033D000000E1114196E000E12141A6E800E1314C2
:1033E0001B6E7F0E14141C6E19501A101B101C102B
:1033F000D8A4FDEF19F0FFEF19F007EF1AF0000E57
:10340000116E000E126E000E136E000E146E000E82
:103410001514196E000E16141A6E800E17141B6EFA
:103420007F0E18141C6E19501A101B101C10D8A4F3
:103430001CEF1AF01EEF1AF026EF1AF0000E156EB0
:10344000000E166E000E176E000E186E1550111835
:103450000FE1165012180CE11750131809E118501B
:103460001418D8B436EF1AF038EF1AF03BEF1AF010
:10347000D8903CEF1AF0D880120057EF1AF0A60E41
:10348000E82EFED700D012C0F6FF13C0F7FFF86A8F
:10349000070EF76403D00800F55005D0F6CFE1FF22
:1034A000F7CFE2FFE750FFEC1AF0124A132A12C0DE
:1034B000F6FF13C0F7FFF86A070EF76403D00800A1
:1034C000F55005D0F6CFE1FFF7CFE2FFE750000956
:1034D000D8A46DEF1AF06FEF1AF03FEF1AF0120058
:1034E000BAC0BEF0BBC0BFF0000E0001DC6F000E22
:1034F000DB6F8EEF1AF0B8C0A4F0B9C0A5F0BE0E15
:10350000A66F000EA76FBCC0A8F0BDC0A9F0E3EC89
:1035100012F00001A451DB27A551DC23BEC0F6FF49
:10352000BFC0F7FF0800F5500009D8A49AEF1AF0C1
:103530009CEF1AF07BEF1AF0DBC0B8F0DCC0B9F0FA
:103540001200BF0E196EFF0E1A6E17C01BF018C0C6
:103550001CF019501B261A501C221C500AE11A0E8E
:103560001B5CD8A0B6EF1AF0B9EF1AF0010EBAEF53
:103570001AF0000E1D6E1E6A1D501E10D8B4C3EF47
:103580001AF0C5EF1AF0CCEF1AF0200E1710176ED4
:103590001850186ED0EF1AF017C017F018C018F0B6
:1035A000120013C017F014C018F011C019F012C0A7
:1035B0001AF01750156E1850166E174A182A15C0B3
:1035C000F6FF16C0F7FFF86A19C0D9FF1AC0DAFF74
:1035D000194A1A2A070EF76403D00800F55005D0DF
:1035E000F6CFE1FFF7CFE2FFE750DF6EDF50D8A460
:1035F000FCEF1AF0FEEF1AF0D9EF1AF01200116E7C
:10360000A60EE82EFED700D0F00E8316F00E95160B
:1036100011380F0B0F0B8310836E8C9C8C8A080E55
:10362000E82EFED700F08C88080EE82EFED700F0BA
:103630008C98F00E831611500F0B8312080EE82E93
:10364000FED700F08C88080EE82EFED700F08C988C
:103650000F0E95121200140EF66E390EF76E000E54
:10366000F86E00EE4AF010EE04F00900F5CFEEFF20
:10367000E550E150FAE101EE00F0500EEE6AE80686
:10368000FDE100EED7F0090EEE6AE806FDE100EE7E
:103690003EF00C0EEE6AE806FDE14E904E92000EF2
:1036A000F86E000192EF15F0C40E0001C86F000E15
:1036B000C96FC0C0CAF0C1C0CBF0000ECD6F000E04
:1036C000CC6F000ECF6F000ECE6FCA0EB86F000E1B
:1036D000B96FC2C0BAF0C3C0BBF0C80EBC6F000E59
:1036E000BD6F70EC1AF00001CC51C025D96ECD51E0
:1036F000C121DA6E000EDF6E12000600F2A483EF25
:103700001BF085EF1BF0A4EF1BF0000ED76E6D0EC3
:10371000D66E4AC001F04BC002F04CC003F04DC061
:1037200004F0000E056E000E066E000E076E3F0ED2
:10373000086EA1EC0CF001C04AF002C04BF003C0CF
:103740004CF004C04DF0F2944E921100116EF00E48
:103750008316F00E951611380F0B0F0B8310836E26
:103760008C9C8C9A080EE82EFED700F08C88080EF0
:10377000E82EFED700F08C98F00E831611500F0B38
:103780008312080EE82EFED700F08C88080EE82E73
:10379000FED700F08C980F0E95121200000E2E1A14
:1037A000000E2F1A000E301A800E311A2AC011F0A6
:1037B0002BC012F02CC013F02DC014F02EC015F049
:1037C0002FC016F030C017F031C018F041EC0AF0ED
:1037D00011C02AF012C02BF013C02CF014C02DF031
:1037E0001200000E206E000E1F6E02EF1CF01EC0B5
:1037F00011F0126A1CC013F01DC014F00BEC18F08D
:103800001F4A202A1F501A24D96E20501B20DA6E1E
:10381000DF501E6E1E50D8A410EF1CF012EF1CF0EB
:10382000F7EF1BF01200BF0E136EFF0E146E11C0E7
:1038300015F012C016F0135015261450162216500B
:103840000AE11A0E155CD8A028EF1CF02BEF1CF033
:10385000010E2CEF1CF0000E116E126A12001150B6
:10386000121013101410D8B438EF1CF03AEF1CF0FB
:1038700042EF1CF0000E111A000E121A000E131A5D
:10388000800E141A11C011F012C012F013C013F000
:1038900014C014F0120011C013F012C014F053EF52
:1038A0001CF0114A122A11C0D9FF12C0DAFFDF50F2
:1038B000D8A45DEF1CF05FEF1CF051EF1CF013502B
:1038C000115C116E14501258126E120013BE71EF7B
:1038D0001CF0135008E11204D8A071EF1CF073EF34
:1038E0001CF079EF1CF01450C00FA6EC1BF07DEF1C
:1038F0001CF01450800FA6EC1BF01200D58ED58C56
:10390000D59AD588D586D550F80B0609D56EF28A9A
:0A391000F28E1200000000401200C9
:020000040020DA
:08000000FFFFFFFFFFFFFFFF00
:020000040030CA
:0E000000240C1F1FFF8385FF0FC00FE00F4071
:00000001FF
