:0400000007EF00F016
:1000080012821DED01F008EF01F001C005F002C0F9
:1000180006F036EF00F0BF0E826E93EF00F0060E8A
:10002800826E93EF00F0DB0E826E93EF00F0CF0E3E
:10003800826E93EF00F0660E826E93EF00F0ED0E85
:10004800826E93EF00F0FD0E826E93EF00F0070EC4
:10005800826E93EF00F0826893EF00F0EF0E826EED
:1000680093EF00F005C003F006C004F00450000A46
:10007800D8B441EF00F093EF00F00350000AD8B471
:100088000FEF00F0010AD8B413EF00F0030AD8B458
:1000980017EF00F0010AD8B41BEF00F0070AD8B434
:1000A8001FEF00F0010AD8B423EF00F0030AD8B418
:1000B80027EF00F0010AD8B42BEF00F00F0AD8B4EC
:1000C8002FEF00F0010AD8B432EF00F093EF00F000
:1000D800BF0E836EC9EF00F0060E836EC9EF00F005
:1000E800DB0E836EC9EF00F0CF0E836EC9EF00F010
:1000F800660E836EC9EF00F0ED0E836EC9EF00F057
:10010800FD0E836EC9EF00F0070E836EC9EF00F095
:100118008368C9EF00F0EF0E836EC9EF00F005C0E9
:1001280003F006C004F00450000AD8B49EEF00F0B3
:100138008CEF00F00350000AD8B46CEF00F0010A0D
:10014800D8B470EF00F0030AD8B474EF00F0010AD5
:10015800D8B478EF00F0070AD8B47CEF00F0010AB1
:10016800D8B480EF00F0030AD8B484EF00F0010A95
:10017800D8B488EF00F00F0AD8B48CEF00F0010A69
:10018800D8B48FEF00F08CEF00F012000F0EC16EA4
:10019800000E946E000E956E100E926E2EEC01F00D
:1001A800000E116E020E106E808A100EE82EFED719
:1001B80000D0809A80A8E3EF00F0E5EF00F0DEEFD2
:1001C80000F0000ED76E6D0ED66ED58E80B8EFEFAC
:1001D80000F0F1EF00F0EAEF00F0D59E10C001F05A
:1001E80011C002F009EC00F0020E0D6E860E0C6EC6
:1001F800990EE82EFED70C2EFCD70D2EFAD700F05C
:10020800D4EF00F007EF00F0740EF66E020EF76EF2
:10021800000EF86E0900F5CF10F00900F5CF11F0C7
:100228000F6A0E6A12901292000EF86E0001CAEF61
:1002380000F00600F2A423EF01F025EF01F02CEF07
:1002480001F0000ED76E6D0ED66E104A112AF29488
:1002580012921100D58ED58CD59AD588D586D550D1
:0E026800F80B0609D56EF28AF28E1200020023
:020000040020DA
:08000000FFFFFFFFFFFFFFFF00
:020000040030CA
:0E000000240C1F1FFF8385FF0FC00FE00F4071
:00000001FF
